:020000040804EE
:10380000707500201D3A040875AD050877AD0508F0
:103810007BAD05087FAD050883AD050800000000FD
:1038200000000000000000000000000087AD050857
:1038300089AD050800000000538D04088BAD050814
:10384000373A0408373A0408373A0408373A040884
:10385000373A0408373A0408373A0408373A040874
:10386000373A0408373A0408373A0408373A040864
:10387000373A0408373A0408373A0408373A040854
:10388000373A0408373A04081D900408373A040808
:10389000373A0408373A0408373A040889B8040864
:1038A000373A0408373A0408373A0408373A040824
:1038B00043AB0408CBA70408373A0408373A040896
:1038C000373A0408373A0408373A0408373A040804
:1038D000373A04089BA90408373A0408373A040821
:1038E000373A0408373A0408373A0408373A0408E4
:1038F000373A0408373A0408373A0408373A0408D4
:10390000373A0408373A0408373A0408373A0408C3
:10391000373A0408373A0408373A0408373A0408B3
:10392000373A040800F002F800F068F80AA090E8BE
:10393000000C82448344AAF10107DA4501D100F06A
:103940005DF8AFF2090EBAE80F0013F0010F18BFCF
:10395000FB1A43F001031847D4B50100F4B5010088
:1039600010F8013B0A4413F0030408BF10F8014BA0
:103970001D1108BF10F8015B641E05D010F8016B23
:10398000641E01F8016BF9D1002D15D010F8014B20
:1039900003F00C030C2BA1EB04040ABF10F8013B4D
:1039A000A4EB8314A4EB032405F1010314F8016BC9
:1039B0005B1E01F8016BF9D5914238BF10F8013B4D
:1039C000D1D370470023002400250026103A28BFD9
:1039D00078C1FBD8520728BF30C148BF0B60704781
:1039E000642917F06382732917F0BD8400207047A3
:1039F0001FB517F066FD1FBD10B510BD17F026FDF1
:103A00001146FFF7F5FF17F079F917F044FD03B4FD
:103A1000FFF7F2FF03BC17F04DFD00000948804797
:103A200009480047FEE7FEE7FEE7FEE7FEE7FEE7A0
:103A3000FEE7FEE7FEE7FEE704480549054A064BB8
:103A4000704700004F3B040825390408706F0020C0
:103A50007075002070710020707100207FB5002506
:103A600000248348006840F480308149086000BF2A
:103A70007F48006800F400346D1C14B9B5F5A04F00
:103A8000F6D17B48006810F4003F01D0012400E02B
:103A90000024012C5AD17748006840F00400754991
:103AA00008600846006840F00200086008460068A8
:103AB00040F0010008606E482430006840F08050FB
:103AC0006B4924310860C8146B49086000BF6A481C
:103AD000406810F0100FFAD165480830006864495A
:103AE00008310860084600680860084600680860F9
:103AF0000846006820F47D0008600846006840F42D
:103B0000450008605A48006840F0807058490860D5
:103B100000BF5748006810F0007FFAD054480830C2
:103B2000006820F003005249083108600846006828
:103B300040F00300086000BF4D480830006800F006
:103B40000C000C28F8D1684601F0F8FB7FBD10B5D9
:103B50004748006840F48070454908604448083090
:103B600000684649084042490831086040480068FA
:103B7000434908403E4908600846006820F4802018
:103B800008603B480830006820F47D00384908315F
:103B900008600020091D0860FFF760FF39483A49B6
:103BA000086010BD70B50022002000210024002311
:103BB0002F4D08352D6805F00C0232B1042A10D0C3
:103BC000082A12D00C2A39D113E0294D2D1D2D6859
:103BD000C5F342335D1C0126AE40F5032B4E356024
:103BE00038E02B4D294E356034E02A4D274E3560A4
:103BF00030E01F4D08352D6805F470101C4D083558
:103C00002D6805F44001244D05EB904528780125E9
:103C100005EB9151164D08352D6805F4803434B903
:103C20001B4D4543B5FBF1F5184E356005E0194DC8
:103C30004543B5FBF1F5154E35600BE00C4D2D1DE0
:103C40002D68C5F342335D1C0126AE40F5030F4ECF
:103C5000356000BF00BF064D08352D68C5F303155C
:103C60000E4E725D094D2D68D540084E356070BD11
:103C700000380240003C0240007000400CC0FF8849
:103C8000FEFFFEEE0038040808ED00E00000002012
:103C90000024F400002D3101040000200D0000205C
:103CA00033490143334A1160704770B50021002346
:103CB0000F22C47824B32F4C246804F4E064C4F5C4
:103CC000E064C4F30721C1F10404E3B20A4144787B
:103CD0009C40E1B28478144021430C07210E264C0D
:103CE00005786155047804F01F050124AC4005787F
:103CF0006D114FF0E02606EB8505C5F8004109E09F
:103D0000047804F01F050124AC401C4D06787611A0
:103D100045F8264070BD1A4A0A400243154B1B1F46
:103D20001A60704739B1134A121D12680243114BD1
:103D30001B1D1A6006E00F4A121D126882430D4BCC
:103D40001B1D1A607047042808D14FF0E021096953
:103D500041F004014FF0E022116107E04FF0E02153
:103D6000096921F004014FF0E02211617047000061
:103D70000000FA050CED00E000E400E080E100E066
:103D800080FFFF1F10B50446FE48844207D1012181
:103D9000401501F0BBFB0021601501F0B7FB10BD21
:103DA00030B50246002000235068F74C20400D79C2
:103DB0000C6844EA0524204350609068F34C20408E
:103DC000D1E903542C438D682C434D7944EA4504D2
:103DD00020439060106B20F0F8700C7D641EE4B2FC
:103DE000234340EA0350106330BD0021016001719C
:103DF000417181604FF04071C1600021016101217A
:103E00000175704701460020E14A106820F44030F7
:103E10000A681043DE4A1060704700210160704755
:103E200021B1826842F00102826003E0826822F0E0
:103E300001028260704721B1826842F00402826010
:103E400003E0826822F00402826070471AB143687E
:103E50000B43436002E043688B43436070470A466C
:103E60000021816821F0F0011143816070470A460A
:103E700000214168C74B194011434160704781627E
:103E8000C26270470A460021416821F01F011143B8
:103E90004160704730B1BE49096841F40001BC4A35
:103EA000116005E0BA49096821F40001B84A1160BF
:103EB0007047F0B504460D46002000211D2D11DD90
:103EC000E06DA5F11E0606EB4607072606FA07F188
:103ED0008843A5F11E0606EB460603FA06F10843E1
:103EE000E06534E0132D11DDE068A5F1140606EB62
:103EF0004607072606FA07F18843A5F1140606EBE4
:103F0000460603FA06F10843E06020E0092D11DDC2
:103F10002069A5F10A0606EB4607072606FA07F10F
:103F20008843A5F10A0606EB460603FA06F10843A4
:103F300020610CE0606905EB4507072606FA07F1EA
:103F4000884305EB450603FA06F108436061072A3A
:103F50000FDA206C561E06EB86071F2606FA07F1BD
:103F60008843561E06EB860605FA06F108432064D0
:103F70004AE00D2A0FDAE06BD61F06EB86071F26F4
:103F800006FA07F18843D61F06EB860605FA06F106
:103F90000843E06338E0132A11DAA06BA2F10D06A2
:103FA00006EB86071F2606FA07F18843A2F10D06E5
:103FB00006EB860605FA06F10843A06324E0192AF9
:103FC00011DA606BA2F1130606EB86071F2606FACC
:103FD00007F18843A2F1130606EB860605FA06F1FF
:103FE0000843606310E0206BA2F1190606EB860718
:103FF0001F2606FA07F18843A2F1190606EB86068A
:1040000005FA06F108432063F0BD816841F0804164
:1040100081607047014600208A6812F0804F01D00D
:10402000012000E00020704721B1826842F48062E4
:10403000826003E0826822F480628260704721B16E
:10404000826842F00202826003E0826822F002028B
:104050008260704710B50A4600210023416821F4B0
:104060006041531E41EA4331416010BD21B14268B5
:1040700042F40062426003E0426822F4006242605F
:1040800070470146886D80B2704721B1826842F462
:104090008072826003E0826822F4807282607047DE
:1040A00021B1826842F40072826003E0826822F4E7
:1040B000007282607047F0B5044615460020002269
:1040C00000261D2911DDE06DA1F11E0707EB470C4D
:1040D000072707FA0CF29043A1F11E0707EB4707E9
:1040E00003FA07F21043E06534E0132911DDE068BC
:1040F000A1F1140707EB470C072707FA0CF29043CE
:10410000A1F1140707EB470703FA07F21043E06039
:1041100020E0092911DD2069A1F10A0707EB470C0E
:10412000072707FA0CF29043A1F10A0707EB4707AC
:1041300003FA07F2104320610CE0606901EB410CC7
:10414000072707FA0CF2904301EB410703FA07F245
:1041500010436061606CC0F30156EF1C06F1010C66
:10416000A7EB0C0707EB870C1F2707FA0CF290430D
:10417000EF1C06F1010CA7EB0C0707EB870701FA10
:1041800007F209E000240140FFFEFFFCFDF7FFC03D
:1041900004270140FFFD3FFF10436064F0BD10B5F0
:1041A0000A4600210023416C21F44011531E41EACC
:1041B0000351416410BD10B5002303460B441A603F
:1041C00010BD0A460021816821F4702111438160ED
:1041D00070470A460021816821F440111143816033
:1041E0007047816841F4800181607047014600207A
:1041F0008A6812F4800F01D0012000E0002070478F
:1042000021B1426842F48062426003E0426822F4D5
:1042100080624260704721B1426842F4805242603D
:1042200003E0426822F48052426070470246002355
:10423000134601F130000344186880B2704710B58E
:104240000B460021D9B2012404FA01F11AB14468E5
:104250000C43446002E044688C43446010BD024655
:10426000002013680B4201D0012000E000207047BD
:10427000CA430260704770B5024600200023002444
:104280000B0A556801268E4005EA060415681D4292
:1042900002D00CB1012000E0002070BD00220A1203
:1042A000D34303607047000001684FF6FE7211406F
:1042B00001600021016041608160C1608C498842D9
:1042C00008D18B490839496841F00F01884A083AFA
:1042D00051608AE086491431884208D184490839FE
:1042E000496841F0F001824A083A51607DE0804916
:1042F0002831884208D17E490839496841F4706103
:104300007B4A083A516070E079493C31884208D1D3
:1043100077490839496841F47041754A083A516053
:1043200063E073495031884208D1714908394968BE
:1043300041F470216E4A083A516056E06C4964318C
:10434000884208D16A490839496841F47001684ACD
:10435000083A516049E066497831884208D1644999
:104360000839496841F07061614A083A51603CE09F
:104370006049884206D1011F096841F00F01021F00
:10438000116032E05B491431884208D15949091F54
:10439000096841F0F001574A121F116025E05549A4
:1043A0002831884208D15349091F096841F47061D6
:1043B000504A121F116018E04E493C31884208D122
:1043C0004C49091F096841F470414A4A121F1160A3
:1043D0000BE048495031884207D14649091F096816
:1043E00041F47021434A121F1160704710B500223A
:1043F000026847F6F0739A430C6A8B6823430C6992
:1044000023434C6923438C692343CC6923434C6A7F
:1044100023438C6A23431A430260CB6843600B68D2
:1044200083604B68C36010BD002101604160816002
:10443000C160016141618161C1610162416281626A
:10444000704721B1026842F00102026004E0026894
:104450004FF6FE731A400260704741607047014694
:10446000486880B270471AB103680B43036002E0EA
:1044700003688B430360704701460020002211F05F
:10448000805F03D11A4B083B1A6802E0194B083BC6
:104490001A680A4201D0012000E00020704710F0A5
:1044A000805F03D112490839486002E01149091FB1
:1044B0000860704701460020002211F0805F03D1A0
:1044C0000B4B083B1A6802E00A4B083B1A680A4289
:1044D00001D0012000E00020704710F0805F03D180
:1044E00003490839486002E00249091F0860704723
:1044F0000860024008640240002041490860091D2C
:104500000860091D0860091D08606FF07F403C4984
:10451000143108607047002139498279002A3AD065
:104520000A46126803689A430B461A600A1D12680D
:1045300003689A430B1D1A60027911440A680368E4
:104540001A430A602E4A0832126803689A432C4BB9
:1045500008331A601A1D126803689A43284B0C33FB
:104560001A604279102A0ED11A1F126803681A4382
:10457000234B08331A601A1D126803681A43204B34
:104580000C331A600DE01E49427911440A68036831
:104590001A430A6005E0027911440A6803689A43E5
:1045A0000A6070470021016001710C2141710021F6
:1045B000817170471249103109680143104A103265
:1045C00011607047014600200D4A143212680A42F9
:1045D00001D0012000E00020704709491431086033
:1045E000704701460020064A143212680A4201D080
:1045F000012000E000207047014914310860704735
:104600000004014001460020F74A106820F0010034
:1046100008431060704730B1F349096841F0020166
:10462000F14A116005E0F049096821F00201EE4A03
:104630001160704730B1EC49096841F00401EA4A61
:10464000116005E0E849096821F00401E64A1160BB
:10465000704730B1E449096841F00801E24A11604D
:1046600005E0E149096821F00801DF4A116070475F
:10467000DD48001D006810F0010F05D0DB48DA4965
:104680000C310860DA480860704700B5D648001D54
:10469000006810F0020F07D0FFF7EAFFD548D249B3
:1046A00010310860D448086000BDCF48001D006884
:1046B00040F00200CC49091D086070470420CA4937
:1046C0001831096801F00101012901D1012010E030
:1046D000C5491831096811F4807F01D0022008E033
:1046E000C1491831096811F4F05F01D0032000E0DE
:1046F0000420704700B502460423FFF7DFFF03469E
:1047000003E0FFF7DBFF0346521E012B01D1002A15
:10471000F7D102B90523184600BD30B5044604257B
:104720006803FFF7E7FF0546042D1FD1AE48001DC3
:10473000006840F40070AC49091D08600846006834
:1047400040F008000860002020606803FFF7D2FFF7
:104750000546A548001D006820F00800A249091D73
:1047600008600846006820F400700860284630BDE4
:1047700070B504460D4604267003FFF7BBFF0646DE
:10478000042E04D125604003FFF7B4FF06463046EF
:1047900070BD9548001D006840F001009249091D58
:1047A0000860704740B19049091D096841F4807163
:1047B0008D4A121D116007E08B49091D096821F41B
:1047C0008071894A121D1160704730B50446042576
:1047D0006803FFF78FFF0546042D01D100202070EC
:1047E000284630BD30B5044604256803FFF782FF34
:1047F0000546042D01D100202080284630BD30B56B
:10480000044604256803FFF775FF0546042D01D112
:1048100000202060284630BD70B504460D460426B1
:104820007003FFF767FF0646042E0CD16E48001D8B
:10483000006820F480706C49091D086025707003C1
:10484000FFF758FF0646304670BD70B504460D466A
:1048500004267003FFF74EFF0646042E0CD1624873
:10486000001D006820F480705F49091D08602580E4
:104870007003FFF73FFF0646304670BD70B5044633
:104880000D4604267003FFF735FF0646042E0CD1B3
:104890005548001D006820F480705349091D0860C8
:1048A00025607003FFF726FF0646304670BD70B5E1
:1048B00004460D4604267003FFF71CFF0646042E2F
:1048C00004D125704003FFF715FF0646304670BD42
:1048D00070B504460D4604267003FFF70BFF06462D
:1048E000042E04D125804003FFF704FF064630461E
:1048F00070BD70B504460D4604267003FFF7FAFE3E
:104900000646042E04D125604003FFF7F3FE064659
:10491000304670BD00B53448001D006810F0040F2B
:1049200007D0FFF7A5FE35482F49143108603448F9
:10493000086000BD2C48001D006840F004002A49B2
:10494000091D086070472848001D006840F4802059
:104950002549091D086070472DE9F04704460F46B8
:10496000002500264FF00408A946AA464FF400404F
:10497000FFF7C0FE8046B8F1040F31D1AFB1214836
:104980008068204385B21F48C06840EA144086B260
:10499000E84345EA00491B48C0F80890F04346EA5E
:1049A000004A1848C0F80CA015E01648806880B28C
:1049B00020EA04051348C068E14300EA1146E843D1
:1049C00045EA00490F48C0F80890F04346EA004A1B
:1049D0000C48C0F80CA04FF40040FFF78BFE804657
:1049E0004046BDE8F0870000003C0240EFCDAB89B7
:1049F00005040302BFAE9D8C16151413C8D9EAFB3B
:104A0000272625240000F81F2DE9F04704460F460D
:104A1000002500264FF00408A946AA464FF400409E
:104A2000FFF768FE8046B8F1040F31D1AFB1F74807
:104A30000069204385B2F548406940EA144086B2D7
:104A4000E84345EA0049F148C0F81090F04346EACF
:104A5000004AEE48C0F814A015E0EC48006980B2A6
:104A600020EA0405E9484069E14300EA1146E843C9
:104A700045EA0049E548C0F81090F04346EA004A8C
:104A8000E248C0F814A04FF40040FFF733FE804620
:104A90004046BDE8F0872DE9F04704460F46002563
:104AA00000264FF00408A946AA464FF40040FFF73D
:104AB00021FE8046B8F1040F31D1AFB1D3488069EF
:104AC000204385B2D148C06940EA144086B2E84329
:104AD00045EA0049CD48C0F81890F04346EA004A3C
:104AE000CA48C0F81CA015E0C848806980B220EA16
:104AF0000405C648C069E14300EA1146E84345EAB7
:104B00000049C248C0F81890F04346EA004ABF483E
:104B1000C0F81CA04FF40040FFF7ECFD8046404673
:104B2000BDE8F087F0B50446042500260027680399
:104B3000FFF7E0FD0546E043C6B244EA0647042D10
:104B400001D1B24807604FF40040FFF7D3FD05469E
:104B50002846F0BD2DE9F04704460F460025002603
:104B60004FF00408A946AA464FF40040FFF7C2FDE3
:104B70008046B8F1040F31D1B7B1A448806880B243
:104B800020EA0405A148C068E14300EA1146E84371
:104B900045EA00499D48C0F80890F04346EA004ABB
:104BA0009A48C0F80CA014E098488068204385B269
:104BB0009648C06840EA144086B2E84345EA004996
:104BC0009248C0F80890F04346EA004A8F48C0F87F
:104BD0000CA04FF40040FFF78DFD80464046BDE835
:104BE000F0872DE9F04704460F46002500264FF0D8
:104BF0000408A946AA464FF40040FFF77BFD804613
:104C0000B8F1040F31D1B7B18048006980B220EA11
:104C100004057E484069E14300EA1146E84345EA5D
:104C200000497A48C0F81090F04346EA004A7748B5
:104C3000C0F814A014E075480069204385B2734899
:104C4000406940EA144086B2E84345EA00496F48AB
:104C5000C0F81090F04346EA004A6C48C0F814A02F
:104C60004FF40040FFF746FD80464046BDE8F08720
:104C70002DE9F0430446042500274FF000084FF0CB
:104C8000000900266803FFF735FD05465F4890F8E8
:104C9000009044EA0906F04387B246EA0748042D2B
:104CA00002D15A48C0F800804FF40040FFF722FDBF
:104CB00005462846BDE8F0832DE9F04304460D463D
:104CC000164604274FF000084FF0000950480068CE
:104CD000C0F3034944EA0500304340EA0900C043F9
:104CE0004FEA004844EA0500304340EA090040EA40
:104CF00008087803FFF7FEFC0746042F02D143485B
:104D0000C0F804804FF40040FFF7F4FC0746384633
:104D1000BDE8F083F0B504460425002600273C4892
:104D2000006800F47000070C44EA0700C043060462
:104D300044EA070006436803FFF7DCFC0546042D40
:104D400001D1324846604FF40040FFF7D3FC0546DE
:104D50002846F0BDF0B504460425002600272C485F
:104D60000068C0F3064744EA0700C043060444EA6B
:104D7000070006436803FFF7BDFC0546042D01D17B
:104D8000224846604FF40040FFF7B4FC0546284631
:104D9000F0BD1F480068C0F3075070471C48001D55
:104DA000006870471A4864300068704718486830D7
:104DB00000687047002016490968C9B2AA2901D0C5
:104DC000012000E00020704700200021104A1268F6
:104DD00002F4807109B1012000E0002070470C4806
:104DE0000068C0F30340704739B1094A183A1268A5
:104DF0000243074B183B1A6006E0054A183A12684E
:104E00008243034B183B1A60704700000000F81FF4
:104E10001C3C024001460020054A12680A4201D0AB
:104E2000012000E000207047014908607047000041
:104E3000183C024010B504467E48844208D1012146
:104E4000084600F052FB0021012000F04EFB52E02A
:104E50007948844208D10121022000F046FB00215C
:104E6000022000F042FB46E07448844208D1012150
:104E7000042000F03AFB0021042000F036FB3AE069
:104E80006F48844208D10121082000F02EFB002148
:104E9000082000F02AFB2EE06A48844208D1012154
:104EA000102000F022FB0021102000F01EFB22E069
:104EB0006548844208D10121402000F016FB002102
:104EC000402000F012FB16E06048844208D1012126
:104ED000802000F00AFB0021802000F006FB0AE0A1
:104EE0005B48844207D10121202000F0FEFA002116
:104EF000202000F0FAFA10BDF0B502460B46002063
:104F000000240025002100BF35E0012606FA00F448
:104F10001E6806EA0405A5422CD111684700032645
:104F2000BE40B1431E794700BE40314311601E7937
:104F3000012E02D01E79022E12D19168470003265D
:104F4000BE40B1435E794700BE40314391609188D5
:104F500001268640B1439E798640B6B231439180A6
:104F6000D16847000326BE40B143DE794700BE400A
:104F70003143D160401C1028C7D3F0BD4FF6FF71FC
:104F800001600021017141718171C17170474FF45D
:104F900080320A43C261C161C261C269C26970479D
:104FA00002460020138A0B4201D0012000E00020BD
:104FB00070470146088A704702460020938A0B42D8
:104FC00001D0012000E0002070470146888A704728
:104FD00001837047418370470AB1018300E0418338
:104FE000704781827047828A4A4082827047F0B55A
:104FF000002300244D07ED0E02FA05F3CE1000F158
:10500000200555F826504E07F70E0F26BE40B54333
:10501000CF1000F1200646F82750CE1000F12005F1
:1050200055F8265045EA0304CE1000F1200545F856
:105030002640F0BD0000024000040240000802408B
:10504000000C02400010024000180240001C024008
:105050000014024010B50121080700F068FA002191
:105060004FF0805000F063FA10BD4B490862704762
:1050700001460020494A106820F0E0000843106013
:1050800070474549086170470022434BA033C2185E
:10509000116070474049886270473F4948627047D5
:1050A000014600203D4A106820F4C050084320F01B
:1050B0000C023A4B1A60704758B13849096841F000
:1050C0000101364A11601146096841F480411160BE
:1050D0000AE03249096821F48041304A11601146E2
:1050E000096821F001011160704710B502460020E7
:1050F0002A4B186820F0030010431860284B1B68E7
:1051000023F00403264C2360012901D130BF00E0C5
:1051100020BF10BD10B502460020204B186820F0BB
:105120000300104318601E4B1B6843F004031C4C23
:105130002360012901D130BF00E020BF184B1B685C
:1051400023F00403164C236010BD1448006840F09F
:105150000400124908600846006840F00200086038
:105160000F48006840F004000D49086000BF00BF10
:1051700030BF704701460020084A52680A4201D0F9
:10518000012000E0002070470449096841EA8001DD
:10519000024A11607047000000000E42007000409B
:1051A00010ED00E0F748006840F48070F5490860B1
:1051B000F44808300068F4490840F24908310860B2
:1051C000F0480068F1490840EE4908600846006868
:1051D00020F480200860EB480830006820F47D004F
:1051E000E849083108600020091D08607047002167
:1051F000E44A921C117011460870704710B50146C0
:105200000022002300204A11012A02D1DD4C23682C
:1052100002E0DC4C3434236801F01F020124944086
:105220001C4201D0012000E0002010BD70B5002418
:105230000025002600BF3120FFF7E0FF0646641C72
:10524000B4F5A04F01D0002EF5D03120FFF7D6FFE6
:1052500008B1012500E00025284670BDC949C91DD7
:105260000870704701460020C64A121D106820F4DD
:105270006040084310607047C549086270470146A6
:105280000020C04A121D106820F4F85040EA0120A6
:1052900010607047BE49086070470021B94A353236
:1052A0001170114608707047BA490860704710B510
:1052B00041EA02030343B34C0A34237010BDB449DE
:1052C00008667047B24908677047B2492C310860D8
:1052D000704740EA0102AB4B0B331A70704701462E
:1052E0000020A84A0832106820F00300084310602C
:1052F0007047A4480830006800F00C007047014671
:105300000020A04A0832106820F0F0000843106026
:105310007047014600209B4A0832106820F4E06084
:1053200008431060704701460020964A0832106812
:1053300020F4605040EAC10010607047F0B50021D1
:10534000002200230026002400258E4F08373F68E6
:1053500007F00C0131B1042912D0082913D00C290F
:1053600037D113E0874F3F1D3F68C7F342356F1CAD
:105370004FF0010C0CFA07FC4FEACC37076036E01F
:10538000854F076033E0854F076030E07D4F083779
:105390003F6807F470127B4F08373F6807F44003FB
:1053A0007F4F07EB92473A78012707EB9353754FEE
:1053B00008373F6807F480362EB9774F5743B7FB5D
:1053C000F3F7076004E0754F5743B7FBF3F7076047
:1053D0000DE06C4F3F1D3F68C7F342356F1C4FF027
:1053E000010C0CFA07FC4FEACC37076000BF00BF86
:1053F000644F08373F6807F0F0010909694F7C5C8A
:105400000768E74047605F4F08373F6807F4E0618F
:10541000090A644F7C5C4768E7408760594F08374A
:105420003F6807F46051C90A5E4F7C5C4768E740FB
:10543000C760F0BD002100F44032B2F5403F08D112
:10544000504A116821F0C04100F0C04211434D4A5A
:1054500011604C4A3432126822F44032494B3433E2
:105460001A601A46126800F440331A43454B34332D
:105470001A607047474958310860704745495C31A8
:105480000860704739B13F4A1C32126802433D4BF5
:105490001C331A6006E03B4A1C3212688243394BC7
:1054A0001C331A60704739B1364A20321268024301
:1054B000344B20331A6006E0324A203212688243AD
:1054C000304B20331A60704739B12E4A24321268AB
:1054D00002432C4B24331A6006E02A4A2432126815
:1054E0008243284B24331A60704739B1254A103261
:1054F00012680243234B10331A6006E0214A10322F
:10550000126882431F4B10331A60704739B11D4A2D
:105510001432126802431B4B14331A6006E0194A16
:10552000143212688243174B14331A60704739B132
:10553000144A183212680243124B18331A6006E0FC
:10554000104A1832126882430E4B18331A607047A3
:1055500039B10C4A2832126802430A4B28331A60C8
:1055600006E0084A283212688243064B28331A6044
:105570007047C9B1034A2C3212680243014B2C33E5
:105580001A6016E0003802400CC0FF88FEFFFEEEF5
:1055900000004742800647420024F400002D3101FC
:1055A0001D00002026000020204A126882431F4B65
:1055B0001A60704739B11D4A121D126802431B4B15
:1055C0001B1D1A6006E0194A121D12688243174B10
:1055D0001B1D1A60704739B1144A1F3A12780243F2
:1055E000124B1F3B1A7008E0104A1F3A1278C3434F
:1055F000DBB21A400D4B1F3B1A7070470B48083046
:10560000006840F080700949083108607047014621
:105610000020064A203A12680A4201D0012000E028
:105620000020704701491E39087070472C3802402D
:1056300010B50446BC48844208D101218014FFF70C
:1056400065FF0021A014FFF761FF16E0B748844210
:1056500008D101210014FFF76AFF00212014FFF791
:1056600066FF0AE0B248844207D10121C013FFF768
:105670005EFF0021E013FFF75AFF10BD10B50022B6
:10568000028802F441520B884C8823438C882343C0
:10569000CC8823430C8923434C8923438C8923439F
:1056A000CC8923431A430280838B4FF2FF7423403B
:1056B00083830B8A038210BD2DE9FF5F05460C46EC
:1056C0004FF0000902274FF000084FF0010B0026B1
:1056D000B246A88B4FF240010840A88302202884DC
:1056E000B5F81C90A068022801D100BF31E0A08865
:1056F00010B94FF0010B01E04FF0020B6846FFF7C5
:105700001DFEDDF800A0E088B0F5007F0AD14FEA69
:105710001A2000EB80004000A168B0FBF1F0401DB2
:1057200086B20BE04FEA4B10BAFBF0F000EB8000C2
:105730004000A168B0FBF1F0401D86B20A20B6FB24
:10574000F0F606F00108A6EB0800C0F34F074FEA99
:105750000828022F01DBFF2F02DD02274FF000088F
:10576000E08840EA080038432884A088A1890843DB
:10577000618808432188084340F4006040EA090931
:10578000A5F81C90BDE8FF9F002101804180818029
:10579000C180018141818181C181072101827047DE
:1057A0000021018041808180C1800221816000212F
:1057B0008181704721B1028842F04002028004E0FA
:1057C00002884FF6BF731A400280704721B1828B66
:1057D00042F48062828304E0828B4FF6FF331A40EA
:1057E0008283704702884FF2FF731A40028002885A
:1057F0000A4302807047B1F5804F04D1028842F419
:105800008042028004E002884BF6FF731A40028057
:105810007047A1F57E42FF3A04D0028842F48072BC
:10582000028004E002884FF6FF631A40028070474E
:1058300021B1828842F00402828004E082884FF61F
:10584000FB731A40828070470146888970478181C6
:10585000704721B1028842F40052028004E00288BD
:105860004DF6FF731A4002807047018841F4805161
:105870000180704702460020012901D0108B00E012
:10588000908A70470146088A704710B51AB183881C
:105890000B43838004E08388CC43A4B223408380FD
:1058A00010BD70B5002400230C110125A540ABB23A
:1058B0001AB185881D43858004E08588DE43B6B231
:1058C0003540858070BD0246002013890B4201D00F
:1058D000012000E000207047CA4302817047F0B504
:1058E0000246002000240023002501F00F070126B6
:1058F000BE40B4B20B1101269E40B3B2968806EAB0
:1059000003051689264202D00DB1012000E00020D7
:10591000F0BD10B5002201F00F040123A3409AB29C
:10592000D343038110BD0000003001400038004027
:10593000003C004010B501210846FFF7E7FD0021BB
:105940000120FFF7E3FD10BD0020B2490860091DEA
:105950000860091D0860091D0860091D0860091D0F
:105960000860091D08607047AB4908607047AA4885
:10597000006800F44070704730B1A749496841F0B1
:105980000101A54A516005E0A349496821F00101E0
:10599000A14A5160704730B500228B071C0F0F23BE
:1059A00003FA04F29C4B08338C1053F824309343D1
:1059B000994C08348D1044F8253023468C1053F848
:1059C00024308C07240F00FA04F42343924C08344B
:1059D0008D1044F8253030BD014600208D4A1068F6
:1059E00020F4403008431060704702460020894B85
:1059F0001868104302F48023B3F5802F02D120F001
:105A00000F00084302F40023B3F5002F03D120F068
:105A1000F00040EA011002F48013B3F5801F03D1B7
:105A200020F4706040EA012002F40013B3F5001F77
:105A300003D120F4704040EA0130764B1860704783
:105A400039B1744A121F12680243724B1B1F1A604D
:105A500006E0704A121F126882436E4B1B1F1A60C9
:105A6000704739B16B4A121F12688243694B1B1F82
:105A70001A6006E0674A121F12680243654B1B1F3B
:105A80001A60704710B50022C20F20F0004081B1AB
:105A90003AB1604B1B1D1B6803435E4C241D236001
:105AA00017E05C4B08331B6803435A4C08342360EF
:105AB0000FE03AB1574B1B1D1B688343554C241D07
:105AC000236006E0534B08331B688343514C083472
:105AD000236010BD40B14F49091D096841F00041E4
:105AE0004C4A121D116007E04A49091D096821F05E
:105AF0000041484A121D1160704710B5012810D1AD
:105B00003AB1444B0C331B688B43424C0C3423603A
:105B10007FE0404B0C331B680B433E4C0C3423603E
:105B200077E0022813D14AB13A4B0C331B68CC43BF
:105B300003EA0443374C0C3423606AE0354B0C33E2
:105B40001B6843EA0143334C0C34236061E00328B3
:105B500010D13AB12F4B10331B688B432D4C1034AE
:105B6000236056E02B4B10331B680B43294C103439
:105B700023604EE0042813D14AB1264B10331B6832
:105B8000CC4303EA0443234C1034236041E0214B0F
:105B900010331B6843EA01431E4C1034236038E085
:105BA000052810D13AB11B4B14331B688B43194C99
:105BB000143423602DE0174B14331B680B43154C32
:105BC0001434236025E0062813D14AB1114B143355
:105BD0001B68CC4303EA04430E4C1434236018E0E2
:105BE0000C4B14331B6843EA01430A4C1434236002
:105BF0000FE03AB1074B18331B688B43054C183440
:105C0000236006E0034B18331B680B43014C183428
:105C1000236010BD047C00400000014010B5044624
:105C2000F948844209D101218803FFF76FFC002164
:105C30004FF48040FFF76AFC32E0F448844209D117
:105C400001214804FFF773FC00214FF40030FFF7F7
:105C50006EFC25E0EE48844209D101218804FFF75B
:105C600066FC00214FF48020FFF761FC18E0E94852
:105C7000844209D10121C804FFF759FC00214FF4E7
:105C80000020FFF754FC0BE0E348844208D10121D7
:105C90000805FFF74CFC00214FF48010FFF747FC8C
:105CA00010BD2DE9FF4705460E460024A14600BF62
:105CB000A046B08900B100BF2C8A24F44054F0887B
:105CC00004432C82AC8941F20C608443B088318952
:105CD0000843718908430443AC81AC8A24F44074BE
:105CE000B0890443AC826846FFF728FBC64885426A
:105CF00002D1DDF80C9001E0DDF80890A88910F4DD
:105D0000004F08D009EBC90000EB091031684900C9
:105D1000B0FBF1F707E009EBC90000EB09103168AF
:105D20008900B0FBF1F76420B7FBF0F00401200913
:105D3000642101FB1078A88910F4004F08D03220AC
:105D400000EBC800B0FBF1F000F00700044308E0EE
:105D5000322000EB08106421B0FBF1F000F00F00DE
:105D600004432C81BDE8FF874FF4165101600021E8
:105D70008180C18001810C21418100218181704796
:105D800010B502460020108A20F470600B884C8801
:105D900023438C882343CC8823431843108210BDAF
:105DA0000021018041808180C180704721B18289BA
:105DB00042F40052828104E082894DF6FF731A405A
:105DC00082817047028B02F47F420283028B0A4376
:105DD0000283704721B1828942F40042828103E04C
:105DE0008289C2F30E028281704721B1828A42F415
:105DF0000062828204E0828A4FF2FF731A4082823C
:105E00007047C1F308028280704701468888C0F35A
:105E100008007047028A4FF6F0731A400282028A25
:105E20000A430282704721B1828942F002028281D4
:105E300004E082894FF6FD731A408281704782899F
:105E40004FF2FF731A40828182890A438281704730
:105E5000028A4FF6DF731A400282028A0A430282E4
:105E6000704721B1028A42F48042028204E0028A31
:105E70004BF6FF731A4002827047818941F001019D
:105E80008181704721B1828A42F00802828204E057
:105E9000828A4FF6F7731A4082827047028BD2B221
:105EA0000283028B42EA01220283704721B1828A77
:105EB00042F02002828204E0828A4FF6DF731A40A9
:105EC0008282704721B1828A42F01002828204E00D
:105ED000828A4FF6EF731A4082827047828A4FF6A9
:105EE000FB731A408282828A0A438282704721B100
:105EF000828A42F00202828204E0828A4FF6FD73B7
:105F00001A408282704710B51AB1838A0B4383828C
:105F100004E0838ACC43A4B22340838210BDF0B551
:105F200003460024002600250020A1F510676A3FE3
:105F300000D100BF1846C1F3421401F01F0601272B
:105F400007FA06F5012C01D10C3004E0022C01D136
:105F5000103000E014301AB107682F43076002E0E8
:105F60000768AF430760F0BD02460020B1F5007F2F
:105F700000D100BF13880B4201D0012000E00020B7
:105F8000704701F40072B2F5007F00D100BFCA4330
:105F90000280704770B502460024002300250020CF
:105FA000A1F510666A3E00D100BFC1F3421501F0B1
:105FB0001F03012606FA03F3012D02D1968933400F
:105FC00006E0022D02D1168A334001E0968A334062
:105FD0000C12012606FA04F41688344013B10CB1F1
:105FE000012000E0002070BD10B500220023A1F5C3
:105FF00010646A3C00D100BF0A1201249440A3B28D
:10600000DC43048010BD0000003801400044004023
:1060100000480040004C00400050004010B50446CD
:10602000B4F1804F08D101210846FFF780FA002122
:106030000120FFF77CFA5EE0F948844208D1012193
:106040000220FFF774FA00210220FFF770FA52E0F5
:10605000F448844208D101210420FFF768FA0021A6
:106060000420FFF764FA46E0EF48844208D101219A
:106070000820FFF75CFA00210820FFF758FA3AE001
:10608000EA48844208D101211020FFF750FA00218C
:106090001020FFF74CFA2EE0E548844208D1012198
:1060A0002020FFF744FA00212020FFF740FA22E0E9
:1060B000E048844208D101210420FFF727FA00219B
:1060C0000420FFF723FA16E0DB48844208D10121BF
:1060D0000820FFF71BFA00210820FFF717FA0AE053
:1060E000D648844207D101211020FFF70FFA002182
:1060F0001020FFF70BFA10BD00220288B0F1804F8C
:1061000008D0C74B984205D0C64B984202D0C64B28
:10611000984204D14FF68F731A404B881A43C34BF1
:10612000984207D0C24B984204D04FF6FF431A4022
:106130000B891A4302804B68C3620B8803850123D5
:10614000838270474FF0FF3141600021018001815F
:10615000418070470185828270470A46002101888C
:106160004FF68F73194011430180704741627047A9
:10617000C16270470146486A70470146088D704702
:1061800021B1028842F00202028004E002884FF648
:10619000FD731A400280704721B1028842F0040268
:1061A000028004E002884FF6FB731A4002807047B9
:1061B00021B1028842F08002028004E002884FF69A
:1061C0007F731A400280704702884FF6F7731A40B7
:1061D000028002880A430280704702884FF6FF431C
:1061E0001A40028002880A430280704721B1028867
:1061F00042F00102028004E002884FF6FE731A406A
:106200000280704730B500230022048C4FF6FE75E3
:106210002C400484028C038B4FF68F742340AC1EF9
:1062200023400C8823436C1E22400C8922434C8857
:1062300022434C6844630383028430BD30B500239D
:106240000022048C4FF6EF752C400484028C038BE3
:1062500048F6FF7423400C88240643EA14434FF6A3
:10626000DF7422400C89240542EA14424C8824053C
:1062700042EA14424C6884630383028430BD30B523
:1062800000230022048C4FF6FF652C400484028C0E
:10629000838B4FF68F7423400C8823434FF6FF54B3
:1062A00022400C89240642EA14424C88240642EA21
:1062B00014424C68C4638383028430BD30B500232C
:1062C0000022048C4EF6FF752C400484028C838BD4
:1062D00048F6FF7423400C88240643EA14434DF625
:1062E000FF7422400C89240742EA14424C88240798
:1062F00042EA14424C6804648383028430BD002166
:106300000180418041600181704770B503460020E3
:1063100000241846183001258D40ACB21D8CE64390
:10632000B6B235401D8409B1082909D100EB6100DE
:10633000056825F0700505600568154305600CE0EB
:106340000D1FADB200EB6500056825F4E045056062
:106350000568160645EA1645056070BD416370473D
:1063600081637047C1637047016470470A4600212A
:10637000018B4FF68F7319401143018370470A4612
:106380000021018B48F6FF731940130641EA1341BF
:10639000018370470A460021818B4FF68F731940A5
:1063A0001143818370470A460021818B48F6FF73B1
:1063B0001940130641EA1341818370470A460021C0
:1063C000018B4FF6F77319401143018370470A465A
:1063D0000021018B4FF2FF731940130641EA13416C
:1063E000018370470A460021818B4FF6F7731940ED
:1063F0001143818370470A460021818B4FF2FF735E
:106400001940130641EA1341818370470A4600216F
:10641000018B4FF6FB731940114301837047000055
:106420000004004000080040000C00400010004044
:106430000014004000080140000C01400010014021
:106440000A460021018B4FF6FF331940130641EA3B
:106450001341018370470A460021818B4FF6FB737D
:1064600019401143818370470A460021818B4FF602
:10647000FF331940130641EA1341818370470A46EE
:106480000021018B4FF67F73194011430183704740
:106490000A460021018BC1F30E01130641EA1341A4
:1064A000018370470A460021818B4FF67F731940A4
:1064B0001143818370470A460021818BC1F30E018D
:1064C000130641EA1341818370470A460021018C7B
:1064D0004FF6FD7319401143018470470A460021AD
:1064E000018C4FF6DF731940130541EA1341018413
:1064F00070470A460021018C4FF6FF5319401306DE
:1065000041EA1341018470470A460021018C4DF68F
:10651000FF731940130741EA134101847047028950
:106520004FF6F7731A40028102890A4302817047CD
:1065300030B5002301248C40A3B2048CDD43ADB2FE
:106540002C400484048C02FA01F5ADB22C4304847F
:1065500030BD828B4FF2FF331A408283828B0B0651
:1065600042EA134282837047F0B50C46154600217B
:1065700000220026078C4EF6FF7C07EA0C070784F2
:10658000818B028C27073E0C40F6FF4739402F06CF
:1065900041EA17411F0741EA174145F6FF773A40A4
:1065A00046F480573A4381830284F0BD828B4FF6D4
:1065B000F3731A408283828B0A4382837047F0B55B
:1065C0000C461546002100220026078C4FF6FF6C72
:1065D00007EA0C070784818B028C27063E0C4FF6D6
:1065E0000C7739401F0545EA174739434FF2FF57EB
:1065F0003A4046F480773A4381830284F0BD028BAF
:106600004FF2FF331A400283028B0B0642EA134219
:1066100002837047F0B50C46154600210022002683
:10662000078C4FF6EF7C07EA0C070784018B028C7E
:1066300027053E0C40F6FF4739401F0741EA174146
:106640002F0641EA17414FF65F773A4046F01007B0
:106650003A4301830284F0BD028B4FF6F3731A4074
:106660000283028B0A4302837047F0B50C4615463D
:1066700000210022068C4FF6FE773E400684018BF7
:10668000028C4FF60C7631401E0545EA1646314322
:106690004FF6F576324044F001063243018302841E
:1066A000F0BD70B505460C46208850B92389A288F4
:1066B00061882846FFF7D9FFE1882846FFF7CCFF1D
:1066C00025E0208804280AD12389A28861882846E9
:1066D000FFF7A0FFE1882846FFF791FF17E0208829
:1066E00008280AD12389A28861882846FFF767FF16
:1066F000E1882846FFF75AFF09E02389A2886188CC
:106700002846FFF731FFE1882846FFF722FF70BDDA
:10671000002101804180012181800021C18001810F
:1067200070472DE9F04105460C4600260127608898
:1067300008B9022600E00026A088012801D102271E
:1067400000E001272088A0B92389A2886188284613
:10675000FFF78BFFE1882846FFF77EFF23893A4643
:1067600031462846FFF756FFE1882846FFF747FFE6
:1067700013E02389A28861882846FFF74BFFE18850
:106780002846FFF73CFF23893A4631462846FFF763
:106790006CFFE1882846FFF75FFFBDE8F081014606
:1067A000486B70470146886B70470146C86B70475D
:1067B0000146086C704710B51AB183890B43838179
:1067C00004E08389CC43A4B22340838110BD81823D
:1067D000704702460020138A0B4201D0012000E0DE
:1067E00000207047CA430282704730B5024600203D
:1067F00000230024158A05EA0103958905EA0104AE
:1068000013B10CB1012000E0002030BDCA43028268
:10681000704741EA0203A0F84830704710B51AB13A
:1068200083890B43838104E08389CC43A4B2234052
:10683000838110BD21B1828842F00802828004E089
:1068400082884FF6F7731A408280704701894FF6AD
:10685000F8721140018170470A46002101894FF604
:106860008F73194011430181704730B504460D46BE
:1068700029462046FFF7F0FF208940F007002081DD
:1068800030BD2DE9F04104460D4616461F46602DE9
:1068900006D13B46012231462046FFF7BBFE05E00C
:1068A0003B46012231462046FFF7DFFE29462046BF
:1068B000FFF7D2FF208940F007002081BDE8F0817A
:1068C00030B50C4600210189C9B21D0642EA1545C2
:1068D00025432943018130BD2DE9F04105460E468F
:1068E00017469846002443463A4631462846FFF765
:1068F000E7FF2C894FF6F870044044F007044FF688
:106900008F70044044F070042C81BDE8F081F0B534
:1069100004460D4616461F463B463246294620464B
:10692000FFF7CEFF208940F480402081F0BD8288AF
:106930004FF68F731A40828082880A4382807047A4
:1069400002894FF6F8731A40028102890A430281D4
:10695000704702894FF67F731A40028102890A4309
:1069600002817047F0B50C4615461E4600210022F4
:1069700000230189028B038C4FF6F87739402143BD
:106980004FF6FC473A4040F201173A434FF6DD77A5
:106990003B40370545EA17473B43018102830384A7
:1069A000F0BD21B1828842F08002828004E08288BA
:1069B0004FF67F731A408280704730F8502F02EAFA
:1069C0001142028002888BB21A4320F85029704786
:1069D0000246002005E011F8013B02F8013B431C90
:1069E000D8B20B78002BF6D1137070472DE9F04127
:1069F00005460E4614460027FE480078002804DDB0
:106A0000112020700020BDE8F0812878012808D0EE
:106A1000022807D0032802D0042804D100E000BFD8
:106A200000BF00BF03E0012020700020EBE700BFA3
:106A300002F06EF9074605F10F013046FFF7C8FF77
:106A40008046384602F068F9002020704046DAE7B8
:106A50000146002002E0491C421CD0B20A78002AFC
:106A6000F9D170472DE9F04105460F4614464FF025
:106A70000008E0480078002803DD12202070BDE8FF
:106A8000F0812878012808D0022807D0032802D0F6
:106A9000042804D100E000BF00BF00BF02E00120D5
:106AA0002070ECE700BF02F033F980463846FFF76C
:106AB000CFFF06460F2E05DD404602F02DF90B20D4
:106AC0002070DCE7394605F10F00FFF781FF4046F3
:106AD00002F022F90020207000BFD0E7002400BFA0
:106AE00002F016F90446C4480068401CC249086018
:106AF000204602F011F902F0B9F8F1E700B587B0CD
:106B0000032000218022BD4BCDE90132CDE90310E5
:106B10004FF6FF701F23BA4A0090AFF23F0001F01A
:106B2000A5FC06AAB7A11F2001F0FBFD07B000BD20
:106B300004E0002200F8012B4A1E91B20029F8DC83
:106B4000704730B54FF4A071B248FFF7F1FFB14B79
:106B500003F1200500240AE0002018705D603F204A
:106B6000D8730021197420332035601C84B2092C9D
:106B7000F2DB0020187058603F20D8730021197490
:106B8000A448A549086030BD30B54FF4E761A3487B
:106B9000FFF7CEFF8021A248FFF7CAFF9F4B03F10A
:106BA000580500240AE05D613F2083F84800002179
:106BB0004920C15458335835601CC4B2142CF2D348
:106BC000002058613F2083F8480000214920C1542B
:106BD00000209449086091489349086030BD002224
:106BE000924B1A709249002004E0002201F8012B18
:106BF000421CD0B20428F8DB00228E4B1A708E4B58
:106C00001A708E4B1A608E4B1A60704700208D49A7
:106C10000860784908708C4908708C4908708C4964
:106C200008708C49086074490860704710B502F01C
:106C300019F8FFF7EBFFFFF7D2FFFFF7A5FFFFF70C
:106C400080FF00F0A1FEFFF759FF02F00CF810BD25
:106C50007F480078012808D166480078FF2804D2D0
:106C600064480078401C6349087070477A496F4A4D
:106C70001278885C6E49095C774A515C01EBC0016F
:106C80006D4A1170704710B50024714800780128D2
:106C900030D102F03DF8044656480078002804DD63
:106CA00054480078401E5349087052480078F0B9A3
:106CB00065480078D8B9FFF7D9FF5F4800785D498B
:106CC0000978884213D056485B49097850F821006A
:106CD0005A49086008460068406B401C09684863D0
:106CE0005C480068401C5B49086002F02DF82046B3
:106CF00002F012F810BD10B55548007890B9FFF7B2
:106D0000B5FF4D4800784B49087045484A49097815
:106D100050F8210049490860084600684849086061
:106D200001F0FDFF10BD70B5002601F0F0FF01F08D
:106D3000EFFF064643480068401C42490860304661
:106D400001F0EAFF42480078012851D14348007819
:106D500020B1012804D0022809D103E001250BE06D
:106D6000002509E0012501203C49087004E00125C7
:106D700000203A49087000BF00BF05B970BD29481E
:106D8000046871E001F0C4FF0646608D78B3608D41
:106D9000401E0004000C608529D194F82C0010F0EE
:106DA000370F09D014F82C0F20F037002070012085
:106DB0006070A4F12C0402E0002084F82D0094F807
:106DC0002C0010F0080F12D104F13004A0781749FC
:106DD000097840EA01001549087020781449085CD8
:106DE000617840EA010014F83019114A505437E034
:106DF0003EE000004400002050000020B832002097
:106E0000B434002075432F4F532D49492049646CF9
:106E100065000000EC3000203C00002038350020E8
:106E2000B8340020600000205800002048000020F6
:106E30004900002046000020470000205C000020A0
:106E40005400002068000020450000204E00002073
:106E50004D00002038000020D0B405086400002058
:106E60006469304601F058FF94F82E001F2889D13C
:106E700000BF83E74FF48F707047704710B590F8EC
:106E8000302001F10B039B5C90F83140A34301F1EA
:106E90000B04A35423469B5C23B98B7A90F83240B1
:106EA000A3438B7210BD2DE9F04F05460F46904667
:106EB0009946A87AA9490E5C05F10B00805D11F88E
:106EC00000B00BEBC60000F0FF0AA54850F82A40BE
:106ED000002004F1200460812760207B20EA080064
:106EE000207384F80D90207BA4F1200410F0080F8B
:106EF0000DD194F832009B490978084399490870EC
:106F00009948805D94F8311008439749885529467F
:106F10002046FFF7B3FF5046BDE8F08F10B5934A07
:106F20001268D061914A126892F8303000F10B0279
:106F3000D25C8E4B1B6893F831301A438B4B1B6825
:106F400093F8304000F10B031A55827A874B1B6887
:106F500093F832301A438272844A126892F83010E1
:106F6000814A525C814B1B6893F831309A437E4BC7
:106F70005A541A46525C42B97C4A126892F832302E
:106F8000784A12789A43774B1A7010BD00238372A7
:106F900000F10B01002204E0002301F8013B531C27
:106FA000DAB2042AF8DB704705E011F8013B00F87B
:106FB000013B531E9AB2002AF7DC704710B500243B
:106FC00001F0A6FE04466A480078F0B969480078E6
:106FD000D8B9FFF74BFE68480078684909788842BD
:106FE00013D05F486449097850F82100644908606B
:106FF00008460068406B401C0968486361480068A7
:10700000401C6049086001F09AFE204601F084FEB1
:1070100010BD7CB5002514E06946284601F027FC28
:10702000064666B94E4850F8254044B1012C06D0BA
:10703000D4E9020100EB8100206401986064681CBF
:10704000C5B21F2DE8DD7CBD2DE9F84F05460E4683
:1070500017469846DDE90BABDDF82890002000903C
:1070600001F056FE009048480468002C71D054F896
:10707000140F45490860009801F04EFE44F8146C66
:10708000A576002020766076E08244F810AC44F8C3
:10709000089C44F80C7C24F804BC24F8028CE077AB
:1070A000E810207705F00700E076217F0120884076
:1070B000A077E17E0120884060770020A0602061F9
:1070C000E0602062A0626062E06220633F2084F89A
:1070D0003400A4F114044FF000014FF049000155B1
:1070E000204601F013FE204601F0BEFD01F010FE27
:1070F00000901B4840F8254024480068606100204B
:10710000A0612248006810B12048006884611F48CF
:10711000046004F13004A0781249097840EA0100C3
:107120001049087020781049085C617840EA010035
:1071300014F830190C4A50541548007800F1010039
:1071400013490870009801F0E7FD0020BDE8F88FB2
:10715000FFE7009801F0E0FD4220F7E7D0B4050812
:10716000B8340020480000204900002054000020CE
:107170004400002045000020470000204600002079
:107180005C00002038000020580000206000002033
:107190004E0000202DE9F05F04460F4691461E4642
:1071A0004FF0000B2078052804D00120307000201B
:1071B000BDE8F09F09F0800ABAF1000F04D029F071
:1071C00080094FF0010801E04FF000080020307006
:1071D00001F09EFD8346B9F1000F2CD0B9F1010FEB
:1071E0003BD0B9F1020F03D0B9F1030F46D111E042
:1071F000208900EA0705BD4206D1B8F1010F05D18B
:107200002089A843208101E070203070584601F0A9
:1072100083FD3AE0208900EA070535B1B8F1010F96
:1072200005D12089A843208101E0702030705846A4
:1072300001F072FD29E0208927EA0005BD4206D150
:10724000B8F1010F05D120892843208101E0702089
:107250003070584601F060FD17E0208927EA0005EC
:1072600035B1B8F1010F05D120892843208101E013
:1072700070203070584601F04FFD06E0584601F08E
:107280004BFD00256F20307000BF00BF28468FE700
:107290002DE9F04106460D460027FB4800780028FE
:1072A00004DD102028700020BDE8F08101F030FDE1
:1072B0000746F648046894B100684068F3490860DE
:1072C000052020702681002060603F20A0720021F0
:1072D000E172384601F020FD0020287004E03846B5
:1072E00001F01AFD722028702046DDE730B5014616
:1072F0004A6808682AB9CC68606028B100254560F2
:1073000002E0106000B142608B6800255D6230BD14
:10731000F0B506460F46B468002004F128046080EA
:107320002780207920F0200020714FF0000060714C
:107330002079A4F12804A8B904F13004A078D44934
:10734000097840EA0100D24908702078D149085CE8
:10735000617840EA010014F83019CE4A50544FF0D9
:10736000010500E000253046FFF7C0FF2846F0BDCC
:107370002DE9F0470446894615464FF0000AC248F9
:107380000078002804DD0F2028702046BDE8F08733
:107390002078052803D0012028702046F6E701F068
:1073A000B7FC8246606808B1012700E00027B9F108
:1073B000000F03D0B9F1010F40D11BE09FB93F206E
:1073C000A0720021E17200202070B0480068606067
:1073D00000202081AD480460504601F09DFC002053
:1073E0002870002605E0504601F096FC49202870E0
:1073F00026462AE0D4F8048005E000214046FFF745
:1074000087FFD8F80080B8F1000FF6D13F20A072B6
:107410000021E172002020709C480068606000201C
:1074200020819A480460504601F076FC012F01D17A
:10743000FFF7C4FD00202870002606E0504601F04A
:107440006BFC07202870264600BF00BF30469DE732
:107450002DE9F04105460E46144600278A4800787B
:10746000002804DD112020700020BDE8F08101F02B
:107470004FFC07462878052806D0384601F04CFC1A
:10748000012020700020F0E705F10A013046FFF7E7
:107490009FFA8046384601F03FFC002020704046AD
:1074A000E3E72DE9F04105460F4614464FF000088A
:1074B00075480078002803DD12202070BDE8F081B7
:1074C00001F026FC80462878052805D0404601F0CA
:1074D00023FC01202070F1E73846FFF7B9FA064691
:1074E0000F2E05DD404601F017FC73202070E5E704
:1074F000394605F10A00FFF76BFA404601F00CFC33
:107500000020207000BFD9E7F0B51446059E624FF9
:107510003F6897F82C7047F02007DFF87CC1DCF853
:1075200000C08CF82C700027DFF86CC1DCF800C0BC
:107530008CF82D70584F3F687E85574F3F687962B1
:107540000C828B74544F3F688F6047680F60002730
:107550004F60C860456805B1696041604E4F3F6843
:1075600097F830204B4FBF5CDFF82CC1DCF800C02F
:107570009CF831C027EA0C07DFF818C10CF802703C
:107580006746BF5C5FB9444F3F6897F832C0404FD1
:107590003F7827EA0C07DFF8F8C08CF80070F0BDE0
:1075A0002DE9F04F89B005460F4691469A46129E46
:1075B0000020029034480078002805DD0220307059
:1075C000002009B0BDE8F08F34480078002803DDC2
:1075D0000D2030700020F4E72878052803D0012022
:1075E00030700020EDE709F0800BBBF1000F04D0F4
:1075F00029F080094FF0010801E04FF0000801F088
:1076000087FB0290B9F1000F56D0B9F1010F76D087
:10761000B9F1020F03D0B9F1030F6FD120E028892F
:1076200000EA0704BC420FD1B8F1010F02D128894A
:10763000A0432881184800680485029801F06CFB7B
:10764000002030702046BCE74B463A4604A9284645
:10765000CDF800A0FFF758FF029801F05DFB76E03F
:10766000288900EA0704DCB1B8F1010F02D12889AA
:10767000A0432881084800680485029801F04CFB6B
:107680000020307020469CE744000020400000208D
:107690004800002049000020540000204500002040
:1076A0004B463A4604A92846CDF800A0FFF72CFF28
:1076B000029801F031FB4AE0288927EA0004BC4225
:1076C0000FD1B8F1010F02D1288920432881BF488A
:1076D00000680485029801F01FFB002030702046EE
:1076E0006FE74B463A4604A92846CDF800A0FFF7BD
:1076F0000BFF029801F010FB29E000E01FE0288951
:1077000027EA00047CB1B8F1010F02D12889204397
:107710002881AE4800680485029801F0FDFA002037
:10772000307020464DE74B463A4604A92846CDF82E
:1077300000A0FFF7E9FE029801F0EEFA07E00298D8
:1077400001F0EAFA00246F203070204639E700BFCC
:10775000FFF734FC01F0DCFA02909C48006890F8D6
:107760002D0020B39948006890F82D000390002068
:107770009649096881F82D0004A8FFF7B7FD00209D
:107780009249096881F82C00029801F0C5FA00249A
:107790000398012805D0022802D10E20307003E0A2
:1077A00000BF0A20307000BF00BF204609E78748AD
:1077B0000068048DB8F1010F1ED1B9F1000F0ED091
:1077C000B9F1010F0CD0B9F1020F03D0B9F1030FD9
:1077D0000AD100E000BF2889A04328810BE000BF48
:1077E00028892043288106E0029801F095FA6F204D
:1077F00030700020E5E600BF029801F08DFA00200D
:1078000030702046DDE670B5002501F081FA0546AE
:107810006E480068048D284601F07EFA204670BD4F
:107820002DE9FC5F0446894692461E4600200090E2
:107830002078052804D0012030700020BDE8FC9F8E
:1078400001F066FA0090BAF1000F03D0BAF1010F0F
:107850000AD104E0208920EA090020810BE0208978
:1078600040EA0900208106E0009801F055FA7120F5
:1078700030700020E2E700BF4FF0000B656855E074
:10788000A87C40B3012838D0022802D0032844D174
:1078900011E02089298A00EA0107288AB84209D123
:1078A00039462846FFF734FD8046B8F1010F01D173
:1078B0004FF0010B38E02089298A00EA01074FB117
:1078C00039462846FFF724FD8046B8F1010F01D163
:1078D0004FF0010B28E0288A218920EA0107288A35
:1078E000B84209D139462846FFF712FD8046B8F163
:1078F000010F01D14FF0010B16E0288A218920EAFF
:1079000001074FB139462846FFF702FD8046B8F11E
:10791000010F01D14FF0010B06E0009801F0FCF9D6
:107920006F203070002089E700BF2D68002DA7D19F
:10793000009801F0F1F9BBF1010F01D1FFF73EFB17
:1079400001F0E6F9009020890190009801F0E4F937
:1079500000203070019871E72DE9F04104460D4692
:1079600000272078052804D0012028700020BDE8D9
:10797000F08101F0CDF907462689384601F0CCF9AF
:10798000002028703046F2E770B58C211048FFF7D0
:10799000CFF80F4C04F11C0600250AE000202070EF
:1079A00066603F20A0720021E1721C341C36681C06
:1079B00085B2042DF2DB0020207060603F20A072B1
:1079C0000021E17202480349086070BD54000020A4
:1079D0002C320020400000202DE9F04104460D46E5
:1079E00000272078042804D0012028700020BDE85A
:1079F000F081FE480078002803DD02202870002076
:107A0000F5E701F085F90746208906122089C0B202
:107A1000FF2820D1208900F47F4020812089F4496B
:107A2000096891F82E1008432081F14800686060D1
:107A3000EF48006890F82E00B04205DC384601F0AF
:107A40006BF97820287004E0384601F065F90020D1
:107A500028700120CBE7384601F05EF9002028703D
:107A600000BFC4E72DE9F04105460E460027DF4878
:107A70000078002804DD102030700020BDE8F0817F
:107A800001F046F90746DB4850F8250030B138468A
:107A900001F042F9282030700020EFE70120D5499D
:107AA00041F82500D44804684CB9002041F825006D
:107AB000384601F031F9042030702046DEE7CE4828
:107AC00000684068CC490860384601F025F9042078
:107AD0002070FF2040EA05202081002060603F20C8
:107AE000E073002121742046FFF750FA0020307027
:107AF0002046C3E730B590F83020C04B9B5C90F82F
:107B00003140A343BD4CA35423469B5C33B990F84A
:107B10003240BB4B1B78A343B94C237000F82E1F97
:107B2000C1F3C203837001F007034370847801231B
:107B3000A340037144780123A340C3700379B04C80
:107B400024782343AE4C23708378AC4CE35CC47838
:107B500023438478A0F12E00A84D2B55A54B43F864
:107B6000210030BD2DE9F84F04468A461546002015
:107B700000902078042804D0012028702046BDE819
:107B8000F88F9A480078002803DD0F2028702046DF
:107B9000F5E701F0BDF80090A07A10B14FF00108B0
:107BA00001E04FF00008BAF1000F03D0BAF1010F65
:107BB0005DD122E0B8F1000F18D13F20E073002121
:107BC00021742089071200208A4941F8270020707B
:107BD0008948006860600020208187480460009820
:107BE00001F09AF800202870002605E0009801F0C6
:107BF00093F849202870264640E020890712208902
:107C000000F0FF0BD4F80490B9F1000F07D099F8F9
:107C10002E00B84203D159464846FFF76BFF05E0F6
:107C20000023102219462046FFF73DF9A07A0028CC
:107C3000F6D13F20E0730021217420890712002033
:107C40006C4941F8270020706B4800686060002094
:107C5000208169480460009801F05EF8B8F1010FD6
:107C600001D1FFF7ABF900202870002606E000984C
:107C700001F052F807202870264600BF00BF3046AA
:107C80007DE72DE9F74F82B00546174600200190A9
:107C90002878042804D00120387005B0BDE8F08FA2
:107CA00052480078002802DD02203870F5E7554878
:107CB0000078002802DD0D203870EEE701F028F88A
:107CC000019028894FEA20282889C0B2FF281FD1B7
:107CD000288900F47F40288128894549096891F85E
:107CE0002E100843288142480068686040480068B8
:107CF00090F82E00404505DC019801F00DF8782041
:107D0000387004E0019801F007F800203870C4E7EB
:107D1000288900F0FF0B6C6894F82E00404573DD55
:107D20003348006890F82E0058456DDA94F830908A
:107D3000324810F8090094F83110084216D02F4844
:107D400010F8090094F8311088432C4901F8090013
:107D5000084610F8090030B994F832102848007825
:107D60008843274908704FF0010A15E0E6698EB193
:107D700014F8301F06F10B00405C6178884314F85A
:107D8000302906F10B01885404D1B07A94F83210EE
:107D90008843B0724FF0000A04F82E8F2078C0108C
:107DA000A070207800F007006070A1780120884062
:107DB0002071617801208840E070A4F12E04BAF1AE
:107DC000010F22D104F13004A0780D49097840EA6E
:107DD00001000B49087020780849085C617840EA86
:107DE000010014F83019054A505423E044000020E3
:107DF00054000020B83400203C000020490000203E
:107E0000480000204500002017E0E66996B1B07AEE
:107E100004F13004A17840EA0100B072217806F143
:107E20000B00405C617840EA010014F8302906F14B
:107E30000B018854704840F828407048006890F85A
:107E40002C0040F010006D49096881F82C004FF0BB
:107E500000006A49096881F82D006849039809689B
:107E600048852846FFF75AF8019800F055FFFFF7BC
:107E7000A5F800F04DFF01906048006890F82D00D3
:107E800020B1012809D0022806D102E00020387074
:107E90000BE00E20387008E000BF29465748006804
:107EA000FEF7ECFF0A20387000BF00BF00205349E6
:107EB000096881F82C005149096881F82D004F4963
:107EC0000968C861019800F027FF00BFE5E62DE9C9
:107ED000F041044600274A480078002802DD0520CA
:107EE000BDE8F0812078042801D00120F8E700F0F7
:107EF0000FFF0746208906122089C5B23F496068F6
:107F00000968884204D0384600F006FF6420E7E79D
:107F10003A48006890F82E00B04204D1294637480C
:107F20000068FFF7E7FD0120334941F82600A07AF9
:107F300008B30023102219462046FEF7B4FF054679
:107F4000208900F47F4020812089284320812A480D
:107F500050F825006060B54206DC384600F0DCFED3
:107F6000FFF72CF87820BBE7384600F0D5FEFFF786
:107F700025F80020B4E7208940F0FF002081002090
:107F80006060384600F0C8FE0020A9E72DE9F04700
:107F900005460C464FF0000919480078002802DD1C
:107FA0000620BDE8F0872878042801D00120F8E7F2
:107FB00000F0AEFE814628890012E0712889A07188
:107FC000A079FF2802D10120607101E000206071DA
:107FD000A87A207105F10B082646002705E018F85D
:107FE000010B06F8010B781CC7B2042FF7DB4846DB
:107FF00000F092FE0020D4E7B834002054000020A6
:108000004400002070B5044600262078032801D0E3
:10801000002070BD00F07CFE06462589002D02DDA3
:108020002089401E2081304600F076FE2846F0E789
:1080300070B505460026DD480078002801DD0020E7
:1080400070BD00F065FE0646D9480468006820B19E
:10805000D74800684068D6490860304600F05CFEAA
:108060005CB1032020702581002060603F20E07318
:10807000002121742046FEF789FF2046E0E72DE924
:10808000F0470446884615464FF00009207803283B
:1080900004D0012028702046BDE8F087C34800784E
:1080A000002803DD0F2028702046F5E700F030FEA1
:1080B0008146A07A08B1012700E00027B8F1000F3F
:1080C00003D0B8F1010F3ED11BE09FB93F20E07310
:1080D0000021217400202070B548006860600020F5
:1080E0002081B3480460484600F016FE0020287046
:1080F000002605E0484600F00FFE4920287026467D
:1081000028E005E00023012219462046FEF7CBFEB9
:10811000A07A0028F6D13F20E073002121740020CE
:108120002070A3480068606000202081A04804609F
:10813000484600F0F1FD012F01D1FEF73FFF00207E
:108140002870002606E0484600F0E6FD072028706B
:10815000264600BF00BF30469EE72DE9F0410546A8
:108160000E46144600272878032803D001202070EB
:10817000BDE8F0818D480078002802DD02202070E3
:10818000F6E78C480078002802DD0D202070EFE72C
:1081900000F0BEFD07462889002808DD2889401E1A
:1081A0002881384600F0B8FD00202070E0E78248C2
:1081B000006890F82C0040F001007F49096881F8C0
:1081C0002C0000207C49096881F82D007A4800685D
:1081D00046852846FEF7A2FE384600F09DFDFEF7D4
:1081E000EDFE00F095FD07467348006890F82D00FD
:1081F00020B1012809D0022806D102E00020207019
:108200000BE00E20207008E000BF29466A48006895
:10821000FEF734FE0A20207000BF00BF0020664930
:10822000096881F82C006449096881F82D006249C9
:108230000968C861384600F06FFD00BF98E72DE976
:10824000F04104460F4615464FF0000820780328F9
:1082500004D0012028700020BDE8F08100F058FD16
:108260008046A07A20B300267FB1012F0CD107E011
:108270000223012200212046FEF715FE701CC6B223
:10828000A07A0028F4D109E000BF022301220021D6
:108290002046FEF708FE701CC6B200BF00BF404675
:1082A00000F03AFDFEF78AFE0E2028703046D3E734
:1082B000404600F031FD0020287000BFCCE770B5CB
:1082C000044600252078032801D0012070BD00F06D
:1082D0001FFD0546A07A60B1002301221946204601
:1082E000FEF7E1FD284600F017FDFEF767FE0020CF
:1082F000ECE720894FF6FF71884207D22089401CA5
:108300002081284600F008FD0020DFE7284600F025
:1083100003FD3220DAE72DE9F04704460D464FF021
:1083200000092078032802D00120BDE8F08700F082
:10833000EFFC8146A07AA87104F10B07AE1C4FF048
:10834000000807E017F8010B06F8010B08F101001F
:1083500000F0FF08B8F1040FF4DB208928804846BC
:1083600000F0DAFC0020E0E72DE9F04104460E467B
:10837000154600272078032803D001202870BDE887
:10838000F08100F0C5FC07460020287020890028F5
:1083900001DD268105E0A07A08B9268101E04920A7
:1083A0002870384600F0B8FC00BFE8E74400002021
:1083B0003C00002045000020540000202DE9FE4F25
:1083C00006460F4690461C464FF0000900F0A0FC00
:1083D0008146FC480078002805DD484600F09CFCFA
:1083E0003C20BDE8FE8FF84850F8240060BB012017
:1083F000F54941F82400484600F08EFC002342462F
:108400003946304600F034FC82460020009001904E
:1084100003460246514602902046FEF715FE0546E9
:1084200035B9EA48007801280CD1FEF7C7FD09E00C
:1084300000F06EFC81460020E34941F824004846E4
:1084400000F06AFC2846CCE7484600F065FC28208E
:10845000C7E712F0010F08D012F0020F05D002E0BA
:10846000491E002308C00029FAD170472DE9F04FBA
:1084700085B081468A4693461C46DDE90F78129DF9
:108480000020039000F044FC0390CE4800780028C0
:1084900006DD039800F040FC3C2005B0BDE8F08FFD
:1084A000C94850F8240088BB0120C74941F824007E
:1084B000039800F031FC2A4641463846FFF7C9FFD1
:1084C0002B465A465146484600F0D2FB049011987C
:1084D000CDE9008002953A4620460E9B0499FEF7AE
:1084E000B3FD064636B9B948007801280CD1FEF72D
:1084F00065FD09E000F00CFC03900020B24941F852
:108500002400039800F008FC3046C6E7FFE7039814
:1085100000F002FC2820C0E72DE9F04105460027C5
:10852000A8480078002802DD4020BDE8F0811F2D1A
:1085300001D13E20F9E700F0EBFB0746FF2D03D108
:10854000A348006890F82E509F4850F8254024B961
:10855000384600F0E1FB4320E7E7012C04D1384620
:1085600000F0DAFB3D20E0E714F8300F9949085C91
:10857000617888432178974A505414F8300911469D
:10858000085C30B994F832109348007888439249D7
:108590000870E06918B12046E169FEF76FFC666A71
:1085A00016B13046FEF7A2FE0020608584F82C004C
:1085B00084F82D0089480078FF2804D28748007885
:1085C000401C86490870384600F0A6FBFEF755FCB3
:1085D00000F09EFB074681480078002804DD7F48B4
:1085E0000078401E7D490870204600F03EFB7C4824
:1085F0000078401E7A4908700020734941F8250030
:10860000A06930B9002061698861764960690860B5
:1086100005E0D4E905014861D4E905108861724894
:1086200000686061704804603F2084F848000021C1
:1086300049200155384600F06FFB64480078012856
:1086400001D1FEF7BBFC00206FE72DE9F0410446A5
:1086500000271F2C02D13E20BDE8F081FF2C0BD15A
:1086600000F056FB07465A48006890F833603846D9
:1086700000F052FB3046EFE700F04AFB0746524855
:1086800050F8245025B9384600F046FB4320E3E774
:10869000012D04D1384600F03FFB3D20DCE73F20B0
:1086A00085F83300384600F037FB0020D4E72DE989
:1086B000F04706460F4614464FF000084148007840
:1086C000002804DD112020700020BDE8F08700F0B4
:1086D0001FFB8046FF2E03D13D48006890F82E60B6
:1086E000394850F8265035B9404600F015FB432074
:1086F00020700020E9E7012D06D1404600F00CFB78
:10870000432020700020E0E705F148013846FEF7DD
:108710005FF98146404600F0FFFA0020207048468D
:10872000D3E72DE9F0470646884614464FF0000986
:1087300024480078002803DD12202070BDE8F0876F
:1087400000F0E6FA8146FF2E03D12148006890F838
:108750002E601D4850F826502DB9484600F0DCFA2E
:1087600043202070EAE7012D05D1484600F0D4FAF5
:1087700043202070E2E74046FEF76AF907460F2FD4
:1087800005DD484600F0C8FA41202070D6E7414692
:1087900005F14800FEF71CF9484600F0BDFA00203C
:1087A000207000BFCAE770B50546002600F0B0FA99
:1087B0000646054850F82540C4B9304600F0ACFAEA
:1087C000462070BD44000020B83400204D00002039
:1087D00054000020490000204800002045000020EF
:1087E0004E0000206000002058000020012C04D121
:1087F000304600F091FA4320E3E794F82C0010F0A3
:10880000080F2FD014F82C0F20F00800207014F857
:108810002C0910BB608DE0B904F13004A0789A49AE
:10882000097840EA01009849087020789749085C67
:10883000617840EA010014F83019944A50543046E7
:1088400000F06AFA92480078012809D1FEF7B6FBD9
:1088500006E0304600F060FA02E0304600F05CFAD4
:108860000020AEE7304600F057FA4420A9E72DE992
:10887000F04707460D464FF0000A00202860686068
:1088800000F046FA8246FF2F03D18248006890F834
:108890002E70814850F827402CB9504600F03CFA21
:1088A0004320BDE8F087012C04D1504600F034FA93
:1088B0004320F6E7208A10F0010F04D1504600F063
:1088C0002BFA4520EDE70026D4F80C90D4F8088068
:1088D000504600F021FA00E0761C58F8041B0029ED
:1088E000FAD0B0002860A9EB060080006860002084
:1088F000D7E72DE9F04105464FF0000800F008FAEF
:108900008046FF2D05D16348006890F82E5001265F
:1089100008E06048006890F82E00A84201D10126C6
:1089200000E000265C4850F825402CB9404600F095
:10893000F3F94820BDE8F081012C04D1404600F055
:10894000EBF94320F6E794F830705048C05D94F896
:10895000311088434D49C8550846C05D30B994F878
:1089600032104948007888434749087094F82C0031
:1089700040F0080084F82C00404600F0CDF9012EAC
:1089800001D1FEF71BFB0020D4E72DE9F047054697
:1089900088464FF0000900F0BBF98146D8F8000086
:1089A00028B1484600F0B8F94720BDE8F087FF2D10
:1089B00005D13848006890F82E50012608E0354867
:1089C000006890F82E00A84201D1012600E00026A0
:1089D000314850F8254024B9484600F09DF9482018
:1089E000E3E7012C04D1484600F096F94320DCE788
:1089F00094F830702548C05D94F8311088432349BD
:108A0000C8550846C05D30B994F832101E48007849
:108A100088431D49087094F82C0040F0080084F841
:108A20002C00484600F078F9012E01D1FEF7C6FA75
:108A30000020BAE72DE9F04105460E46002700F078
:108A400067F90746FF2D03D11248006890F82E50B1
:108A5000114850F825402CB9384600F05DF929201E
:108A6000BDE8F081012C04D1384600F055F94320CF
:108A7000F6E7582221463046FEF796FA384600F0CF
:108A80004BF90020ECE700004800002049000020DE
:108A90004D00002054000020B834002070B5054679
:108AA00000266A480078002800DD70BD002D23DD17
:108AB00000F02EF906466648006890F83040654898
:108AC000005D6349096891F8311088436149085590
:108AD0000846005D40B95E48006890F832105E4874
:108AE000007888435C4908705948006845853046DD
:108AF00000F012F9FEF762FA00BFD6E72DE9F04761
:108B000006460F469046994650480078002802DDF8
:108B10005520BDE8F08709F10500642148434FF472
:108B20007A71B0FBF1F14FF461607043C7EB07124B
:108B300000EB8200404400EBC00202EB001001EBAE
:108B40008004250CA4B22046FFF7A8FF09E04FF4EB
:108B50000040FFF7A3FF4FF40040FFF79FFF681EA0
:108B600085B2002DF3DC0020D3E770B50546002662
:108B70001F2D01DB2A2070BD00F0CAF806463748D9
:108B800050F8254024B9304600F0C6F84320F2E7FB
:108B9000012C04D1304600F0BFF84320EBE7608D94
:108BA00020B9304600F0B8F85020E4E70020608596
:108BB00094F82C0010F0370F09D014F82C0F20F087
:108BC0003700207001206070A4F12C0402E0002026
:108BD00084F82D0094F82C0010F0080F18D104F13F
:108BE0003004A0781C49097840EA01001A4908704D
:108BF00020781849085C617840EA010014F83019BF
:108C0000144A5054304600F087F8FEF7D7F902E0D6
:108C1000304600F081F80020ADE770B5002500F087
:108C200077F805460E480468284600F075F8204697
:108C300070BD70B50446002500F06AF80546084886
:108C40000460284600F068F870BD00004400002071
:108C5000540000204900002048000020B8340020C3
:108C60006800002070477047704770477047704732
:108C700070B5044610464FF080750560051F284604
:108C80002C606FF00106051F28462E604FF012364B
:108C9000051F28462E604FF00336051F28462E601C
:108CA0004FF00236051F28462E607610051F284615
:108CB0002E60051F284629604FF01136051F2846F3
:108CC0002E604FF01036051F28462E604FF00936F3
:108CD000051F28462E604FF00836051F28462E60D7
:108CE0004FF00736051F28462E604FF00636051F49
:108CF00028462E604FF00536051F28462E604FF09F
:108D00000436051F28462E6070BD704770477047B7
:108D1000EFF3108072B6704780F3108870471D48DB
:108D20004FF0FF010170002080F309881A480121EB
:108D300001701A484FF08051016062B6FEE7174893
:108D40004FF080510160704714484FF0805101602E
:108D5000704772B6EFF3098028B1203880E8F00F31
:108D60000F490968086000B50E4880475DF804EBBC
:108D70000D480E490A78027009480D490A680260D8
:108D8000106890E8F00F203080F309884EF0040E50
:108D900062B6704722ED00E04D00002004ED00E0D7
:108DA000540000200B8D04084600002047000020DE
:108DB0005C00002010B5FAF7CAFE4FF44070FAF7D5
:108DC0006FFF10BD7FB56846FCF7B8FA64220198C2
:108DD000B0FBF2F1B1F1807F00D31DE021F07F40C4
:108DE000401E4FF0E022506150170F22002807DA92
:108DF00013071D0E094B00F00F04241F1D5503E03F
:108E000013071C0E064B1C5400BF00204FF0E0223D
:108E100090610720106100BF7FBD000018ED00E0E9
:108E200000E400E010B500F0B9FC00F00DFA00F02D
:108E3000B7F800F0EBFD00F0F9FC01F017FB01F0D2
:108E400059FF01F013FE01F0FFFC0DF063FA33212E
:108E5000084601F075FF02F09FFD02F0AFFE11F031
:108E600015FF10BD00B595B00120FCF713FA0121E4
:108E70004802FCF718FB0120FBF70CF80121022047
:108E8000FCF700FB0220019003208DF808008DF80C
:108E9000090001A96C48FCF72FF84FF4003000904E
:108EA0006846FAF7AFFF6948FAF76CFF00200390B5
:108EB00001208DF810008DF811000020059006901B
:108EC000079002208DF8200003A96048FAF768FF98
:108ED0000723012209215D48FAF7EBFF072302224D
:108EE00011215A48FAF7E5FF12208DF824000F20CF
:108EF0008DF8250002208DF8260001208DF827002E
:108F000009A8FAF7D2FE012242F21A014F48FBF7F4
:108F100096F901214D48FAF783FF00BF40214B48E5
:108F2000FBF79DF90028F9D000BF4FF48071474846
:108F3000FBF795F90028F8D101210806FCF7A2FA01
:108F40004348FBF7B1F9414858300A9041480B902B
:108F500000200C9028200D9000200E9080200F9073
:108F60004000109080001190202012900002139079
:108F7000002014900AA93648FBF738FA012133483B
:108F8000FBF783F801213148FBF78AF82F48FBF7FC
:108F90003CF801212E48FBF754FA012015B000BD22
:108FA00010B5002400BF05E000202A4921F8140074
:108FB000601C84B2282CF7DBFFF754FF012010BDA2
:108FC00030B503460C4600220021002013B1012BCE
:108FD0001CD10DE0002107E01E4D35F811502A4448
:108FE0004D1CA9B24D1CA9B22829F5DB01200FE0C8
:108FF000012107E0174D35F811502A444D1CA9B244
:109000004D1CA9B22829F5DB012001E0002000BF9A
:1090100000BF1425B2FBF5F5258030BD10B5FDF776
:1090200017FE20210948FBF71AF948B1202107480B
:10903000FBF71EF900210648FBF703FAFFF712FFC2
:10904000FDF721FE10BD0000000402400024014095
:1090500008600240703C002000214100FD4A128A55
:109060004FF601631A4001F4FF731A43F94B9A82D9
:10907000704710B504460121F748FBF7ABFF1021FC
:10908000F548FBF7A7FF0221F348FBF7A3FF2046B3
:10909000FFF7E2FF0221F048FBF79AFF1021EE48AC
:1090A000FBF796FF0121EC48FBF792FF10BD10B5CE
:1090B00004460121E848FBF78BFF1021E648FBF747
:1090C00089FF0221E448FBF785FF2046FFF7C4FF34
:1090D0000221E148FBF77CFF1021DF48FBF778FF16
:1090E0000121DD48FBF774FF012010BD10B50446D7
:1090F0008120FFF7BEFF2046FFF7BBFF012010BD18
:109100002DE9FF4104466846FCF718F9D349019858
:10911000B0FBF1F6002506E0002700BF38467F1CB3
:10912000B042FBD36D1CA542F6D3BDE8FF811CB550
:1091300001210520FCF7A6F94FF4FF7000900220F2
:109140008DF8050001208DF8040000208DF8060040
:109150008DF807006946BF48FBF7CEFE102000904F
:1091600002208DF8050001208DF8040000208DF804
:1091700006008DF807006946B748FBF7BDFE0120E1
:10918000009002208DF8050001208DF804000020D9
:109190008DF806008DF807006946AF48FBF7ACFE76
:1091A000022000908DF8050001208DF804000020B9
:1091B0008DF806008DF807006946A748FBF79CFE6E
:1091C0000420009002208DF8050001208DF8040095
:1091D00000208DF806008DF8070069469E48FBF7D1
:1091E0008BFE2020009002208DF8050001208DF8D4
:1091F000040000208DF806008DF8070069469648A7
:10920000FBF77AFE10219448FBF7E2FE0121924819
:10921000FBF7DEFE02219048FBF7DAFE04218E48C0
:10922000FBF7D6FE20218C48FBF7D2FE20218A488E
:10923000FBF7D0FE42F21070FFF762FF2021864854
:10924000FBF7C6FE01201CBD70B5FFF770FFAE2016
:10925000FFF70FFF0020FFF70CFF1020FFF709FFBB
:109260004020FFF706FF2E20FFF703FF8120FFF7C6
:1092700000FF3220FFF7FDFE8220FFF7FAFE80207C
:10928000FFF7F7FEA120FFF7F4FEA620FFF7F1FE9F
:10929000A820FFF7EEFE3F20FFF7EBFEAD20FFF723
:1092A000E8FE8E20FFF7E5FEC820FFF7E2FED320A0
:1092B000FFF7DFFE4020FFF7DCFED520FFF7D9FEE9
:1092C000F020FFF7D6FED820FFF7D3FE0520FFF7EA
:1092D000D0FED920FFF7CDFEF120FFF7CAFEDA203D
