:020000040800F2
:10800000009C002019820008255E0208275E0208F5
:108010002B5E02082F5E0208335E0208000000009B
:10802000000000000000000000000000375E0208B1
:10803000395E020800000000CFD500083B5E020850
:10804000338200083382000833820008338200083C
:10805000338200083382000833820008338200082C
:10806000338200083382000833820008338200081C
:10807000338200083382000833820008338200080C
:108080003382000833820008FBD9000833820008DD
:10809000338200083382000833820008E50A0108B1
:1080A00033820008338200083382000833820008DC
:1080B000F5FB00086DFB00086D1101083382000814
:1080C00033820008338200083382000833820008BC
:1080D00033820008F3F8000833820008F90F010822
:1080E000338200083382000833820008338200089C
:1080F0003382000833820008EBF600083382000860
:10810000338200083382000833820008338200087B
:10811000338200083382000833820008338200086B
:108120003382000800F002F800F066F80AA090E838
:10813000000C82448344AAF10107DA4501D100F022
:108140005BF8AFF2090EBAE80F0013F0010F18BF89
:10815000FB1A43F001031847E41A0200041B020053
:1081600010F8013B0A4413F0030408BF10F8014B58
:108170001D1108BF10F8015B641E05D010F8016BDB
:10818000641E01F8016BF9D1002D15D010F8014BD8
:1081900003F00C030C2BA1EB04040ABF10F8013B05
:1081A000A4EB8314A4EB032405F1010314F8016B81
:1081B0005B1E01F8016BF9D5914238BF10F8013B05
:1081C000D1D370470023002400250026103A28BF91
:1081D00078C1FBD8520728BF30C148BF0B60704739
:1081E00064291DF0D38673291EF0E38100207047B7
:1081F0001FB51FBD10B510BD1EF01CFA1146FFF7CC
:10820000F7FF1DF0CEFD1EF03AFA03B4FFF7F2FFC0
:1082100003BC1EF041FA00000948804709480047A6
:10822000FEE7FEE7FEE7FEE7FEE7FEE7FEE7FEE726
:10823000FEE7FEE704480549054A064B7047000083
:10824000658300082581000800960020009C00201E
:10825000009800200098002000B587B0002006900C
:1082600005908948006840F480308749086000BF65
:108270008548006800F4003005900698401C069080
:10828000059818B90698B0F5A04FF1D17E4800685E
:1082900000F4003010B10120059001E000200590AD
:1082A000059801285CD17948006840F004007749BE
:1082B00008600846006840F0020008600846006850
:1082C00040F00100086070482430006840F08050A1
:1082D0006D4924310860C8146D49086000BF6C48BE
:1082E000406800F010000028F9D1674808300068A5
:1082F000654908310860084600680860084600685B
:1083000008600846006820F47D00086008460068A0
:1083100040F4450008605C48006840F080705A49AD
:10832000086000BF5848006800F000700028F9D0CD
:1083300055480830006820F00300534908310860B0
:108340000846006840F00300086000BF4E4808304F
:10835000006800F00C000C28F8D101A801F036FCF0
:1083600007B000BD10B54848006840F48070464929
:1083700008604548083000684649084042490831CD
:10838000086041480068444908403F490860084681
:10839000006820F4802008603B480830006820F422
:1083A0007D003949083108600020091D0860FFF789
:1083B00053FF3A483A49086010BD70B500220020CA
:1083C000002100240023304D08352D6805F00C02F3
:1083D00032B1042A10D0082A12D00C2A39D113E065
:1083E000294D2D1D2D68C5F342335D1C0126AE407D
:1083F000F5032C4E356038E02B4D2A4E356034E0C5
:108400002A4D284E356030E01F4D08352D6805F4A3
:1084100070101D4D08352D6805F44001244D05EB05
:1084200090452878012505EB9151174D08352D68A9
:1084300005F4803434B91C4D4543B5FBF1F5194EB4
:10844000356005E0194D4543B5FBF1F5154E356036
:108450000BE00D4D2D1D2D68C5F342335D1C01262B
:10846000AE40F5030F4E356000BF00BF064D083526
:108470002D68C5F303150F4E725D0A4D2D68D5406A
:10848000084E356070BD000000380240003C0240DC
:10849000007000400CC0FF88FEFFFEEE0080000868
:1084A00008ED00E0000000200024F400002D310160
:1084B000040000200D00002032490143324A1160BF
:1084C000704770B5002100230F22C4781CB32E4CD6
:1084D000246804F4E064C4F5E064C4F30721C1F146
:1084E0000404E3B20A4144789C40E1B28478144029
:1084F00021430C07210E254C05786155047804F0C2
:108500001F050124AC4005786D11AD0005F1E02593
:10851000C5F8004109E0047804F01F050124AC40CF
:108520001B4D0678761145F8264070BD194A0A4061
:108530000243154B1B1F1A60704739B1124A121DB6
:1085400012680243104B1B1D1A6006E00E4A121DF2
:10855000126882430C4B1B1D1A607047042808D117
:108560004FF0E021096941F004014FF0E022116170
:1085700007E04FF0E021096921F004014FF0E0220B
:10858000116170470000FA050CED00E000E400E026
:1085900080E100E080FFFF1F10B50446FE488442E2
:1085A00007D10121401501F0F9FB0021601501F010
:1085B000F5FB10BD30B50246002000235068F74C93
:1085C00020400D790C6844EA0524204350609068EF
:1085D000F34C2040D1E903542C438D682C434D7952
:1085E00044EA450420439060106B20F0F8700C7D45
:1085F000641EE4B2234340EA0350106330BD0021FF
:1086000001600171417181604FF04071C1600021D2
:10861000016101210175704701460020E14A10689F
:1086200020F440300A681043DE4A10607047002191
:108630000160704721B1826842F00102826003E06C
:10864000826822F001028260704721B1826842F0A4
:108650000402826003E0826822F0040282607047B4
:108660001AB143680B43436002E043688B434360A5
:1086700070470A460021816821F0F00111438160B2
:1086800070470A4600214168C74B194011434160B9
:1086900070478162C26270470A460021416821F03A
:1086A0001F0111434160704730B1BE49096841F470
:1086B0000001BC4A116005E0BA49096821F40001D3
:1086C000B84A11607047F0B504460D4600200021FD
:1086D0001D2D11DDE06DA5F11E0606EB46070726F0
:1086E00006FA07F18843A5F11E0606EB460603FAD3
:1086F00006F10843E06534E0132D11DDE068A5F1D3
:10870000140606EB4607072606FA07F18843A5F18B
:10871000140606EB460603FA06F10843E06020E083
:10872000092D11DD2069A5F10A0606EB460707268B
:1087300006FA07F18843A5F10A0606EB460603FA96
:1087400006F1084320610CE0606905EB4507072648
:1087500006FA07F1884305EB450603FA06F10843DC
:108760006061072A0FDA206C561E06EB86071F266B
:1087700006FA07F18843561E06EB860605FA06F14F
:10878000084320644AE00D2A0FDAE06BD61F06EB9F
:1087900086071F2606FA07F18843D61F06EB8606D2
:1087A00005FA06F10843E06338E0132A11DAA06BFA
:1087B000A2F10D0606EB86071F2606FA07F188438D
:1087C000A2F10D0606EB860605FA06F10843A06342
:1087D00024E0192A11DA606BA2F1130606EB860772
:1087E0001F2606FA07F18843A2F1130606EB860658
:1087F00005FA06F10843606310E0206BA2F1190648
:1088000006EB86071F2606FA07F18843A2F1190630
:1088100006EB860605FA06F108432063F0BD816881
:1088200041F0804181607047014600208A6802F073
:1088300080420AB1012000E00020704721B1826827
:1088400042F48062826003E0826822F48062826087
:10885000704721B1826842F00202826003E08268C0
:1088600022F002028260704710B50A460021002300
:10887000416821F46041531E41EA4331416010BD1B
:1088800021B1426842F40062426003E0426822F48F
:108890000062426070470146886D80B2704721B126
:1088A000826842F48072826003E0826822F48072FF
:1088B0008260704721B1826842F40072826003E0F6
:1088C000826822F4007282607047F0B50446154653
:1088D0000020002200261D2911DDE06DA1F11E07F8
:1088E00007EB470C072707FA0CF29043A1F11E078C
:1088F00007EB470703FA07F21043E06534E013295A
:1089000011DDE068A1F1140707EB470C072707FA10
:108910000CF29043A1F1140707EB470703FA07F2A3
:108920001043E06020E0092911DD2069A1F10A0768
:1089300007EB470C072707FA0CF29043A1F10A074F
:1089400007EB470703FA07F2104320610CE0606968
:1089500001EB410C072707FA0CF2904301EB4107AA
:1089600003FA07F210436061606CC0F30156EF1C1C
:1089700006F1010CA7EB0C0707EB870C1F2707FA82
:108980000CF29043EF1C06F1010CA7EB0C0707EB70
:10899000870701FA07F209E000240140FFFEFFFC0F
:1089A000FDF7FFC004270140FFFD3FFF1043606457
:1089B000F0BD10B50A4600210023416C21F440119E
:1089C000531E41EA0351416410BD08B500230093D2
:1089D0000090009B0B440093009B1A6008BD0A4660
:1089E0000021816821F470211143816070470A469B
:1089F0000021816821F44011114381607047816832
:108A000041F4800181607047014600208A6802F4C9
:108A100080020AB1012000E00020704721B14268C5
:108A200042F48062426003E0426822F48062426065
:108A3000704721B1426842F48052426003E04268CC
:108A400022F480524260704708B502460020009030
:108A5000009201F13000009B1844009000980068DB
:108A600080B208BD10B50B460021D9B2012404FA2A
:108A700001F11AB144680C43446002E044688C433D
:108A8000446010BD0246002013680B400BB101206A
:108A900000E000207047CA430260704770B502468C
:108AA0000020002300240B0A556801268E4005EAA9
:108AB000060415681D4015B10CB1012000E000202E
:108AC00070BD00220A12D3430360704701684FF65D
:108AD000FE72114001600021016041608160C1604F
:108AE0008D49884208D18C490839496841F00F0105
:108AF000894A083A51608AE087491431884208D18E
:108B000085490839496841F0F001834A083A5160C3
:108B10007DE081492831884208D17F490839496878
:108B200041F470617C4A083A516070E07A493C3106
:108B3000884208D178490839496841F47041764A39
:108B4000083A516063E074495031884208D1724953
:108B50000839496841F470216F4A083A516056E07B
:108B60006D496431884208D16B490839496841F43C
:108B70007001694A083A516049E067497831884292
:108B800008D165490839496841F07061624A083A7C
:108B900051603CE06149884206D1011F096841F0FB
:108BA0000F01021F116032E05C491431884208D184
:108BB0005A49091F096841F0F001584A121F116013
:108BC00025E056492831884208D15449091F0968CF
:108BD00041F47061514A121F116018E04F493C3155
:108BE000884208D14D49091F096841F470414B4A38
:108BF000121F11600BE049495031884207D14749A3
:108C0000091F096841F47021444A121F116070471E
:108C100010B50022026847F6F0739A430C6A8B681D
:108C200023430C6923434C6923438C692343CC6958
:108C300023434C6A23438C6A23431A430260CB6864
:108C400043600B6883604B68C36010BD0021016006
:108C500041608160C160016141618161C161016206
:108C600041628162704721B1026842F001020260F4
:108C700004E002684FF6FE731A40026070474160DC
:108C800070470146486880B270471AB103680B43C9
:108C9000036002E003688B430360704701460020D5
:108CA000002201F080531BB91B4B083B1A6802E0FD
:108CB0001A4B083B1A6802EA01030BB1012000E0DD
:108CC0000020704700F0805119B9134908394860F5
:108CD00002E01249091F0860704701460020002287
:108CE00001F080531BB90C4B083B1A6802E00B4B98
:108CF000083B1A6802EA01030BB1012000E00020E2
:108D0000704700F0805119B903490839486002E002
:108D10000249091F08607047086002400864024069
:108D2000002041490860091D0860091D0860091DEF
:108D300008606FF07F403C491431086070470021A3
:108D400039498279002A3AD00A46126803689A4360
:108D50000B461A600A1D126803689A430B1D1A60BD
:108D6000027911440A6803681A430A602E4A0832DD
:108D7000126803689A432C4B08331A601A1D126854
:108D800003689A43284B0C331A604279102A0ED19B
:108D90001A1F126803681A43234B08331A601A1DFE
:108DA000126803681A43204B0C331A600DE01E4909
:108DB000427911440A6803681A430A6005E002799F
:108DC00011440A6803689A430A60704700210160F1
:108DD00001710C21417100218171704712491031DC
:108DE00009680143104A10321160704701460020A3
:108DF0000D4A143212680A400AB1012000E0002036
:108E00007047094914310860704701460020064A3E
:108E1000143212680A400AB1012000E000207047B5
:108E200001491431086070470004014001460020E8
:108E3000F94A106820F0010008431060704730B113
:108E4000F549096841F00201F34A116005E0F24971
:108E5000096821F00201F04A1160704730B1EE4913
:108E6000096841F00401EC4A116005E0EA4909682B
:108E700021F00401E84A1160704730B1E649096801
:108E800041F00801E44A116005E0E349096821F076
:108E90000801E14A11607047DF48001D006800F0DA
:108EA000010028B1DD48DC490C310860DC4808606D
:108EB000704700B5D848001D006800F0020038B1C6
:108EC000FFF7EAFFD748D44910310860D648086058
:108ED00000BDD148001D006840F00200CE49091DC8
:108EE000086070470420CC491831096801F001017D
:108EF00009B1012010E0C8491831096801F48071F6
:108F000009B1022008E0C4491831096801F4F051A0
:108F100009B1032000E00420704708B50246042090
:108F20000090FFF7DFFF009003E0FFF7DBFF00900A
:108F3000521E9DF80000012801D1002AF5D10AB97E
:108F4000052000909DF8000008BD30B504460425BA
:108F50006803FFF7E2FF0546042D1FD1AE48001D50
:108F6000006840F40070AC49091D086008460068BC
:108F700040F008000860002020606803FFF7CDFF84
:108F80000546A548001D006820F00800A249091DFB
:108F900008600846006820F400700860284630BD6C
:108FA00070B504460D4604267003FFF7B6FF06466B
:108FB000042E04D125604003FFF7AFFF064630467C
:108FC00070BD9548001D006840F001009249091DE0
:108FD0000860704740B19049091D096841F48071EB
:108FE0008D4A121D116007E08B49091D096821F4A3
:108FF0008071894A121D1160704730B504460425FE
:109000006803FFF78AFF0546042D01D10020207078
:10901000284630BD30B5044604256803FFF77DFFC0
:109020000546042D01D100202080284630BD30B5F2
:10903000044604256803FFF770FF0546042D01D19F
:1090400000202060284630BD70B504460D46042639
:109050007003FFF762FF0646042E0CD16E48001D18
:10906000006820F480706C49091D08602570700349
:10907000FFF753FF0646304670BD70B504460D46F7
:1090800004267003FFF749FF0646042E0CD1624800
:10909000001D006820F480705F49091D086025806C
:1090A0007003FFF73AFF0646304670BD70B50446C0
:1090B0000D4604267003FFF730FF0646042E0CD140
:1090C0005548001D006820F480705349091D086050
:1090D00025607003FFF721FF0646304670BD70B56E
:1090E00004460D4604267003FFF717FF0646042EBC
:1090F00004D125704003FFF710FF0646304670BDCF
:1091000070B504460D4604267003FFF706FF0646B9
:10911000042E04D125804003FFF7FFFE06463046AB
:1091200070BD70B504460D4604267003FFF7F5FECA
:109130000646042E04D125604003FFF7EEFE0646E6
:10914000304670BD00B53448001D006800F00400D2
:1091500038B1FFF7A1FE35482F4914310860344873
:10916000086000BD2C48001D006840F004002A493A
:10917000091D086070472848001D006840F48020E1
:109180002549091D086070472DE9F04704460F4640
:10919000002500264FF00408A946AA464FF40040D7
:1091A000FFF7BBFE8046B8F1040F31D1AFB12148C3
:1091B0008068204385B21F48C06840EA144086B2E8
:1091C000E84345EA00491B48C0F80890F04346EAE6
:1091D000004A1848C0F80CA015E01648806880B214
:1091E00020EA04051348C068E14300EA1146E84359
:1091F00045EA00490F48C0F80890F04346EA004AA3
:109200000C48C0F80CA04FF40040FFF786FE8046E3
:109210004046BDE8F0870000003C0240EFCDAB893E
:1092200005040302BFAE9D8C16151413C8D9EAFBC2
:10923000272625240000F81F2DE9F04704460F4695
:10924000002500264FF00408A946AA464FF4004026
:10925000FFF763FE8046B8F1040F31D1AFB1F74894
:109260000069204385B2F548406940EA144086B25F
:10927000E84345EA0049F148C0F81090F04346EA57
:10928000004AEE48C0F814A015E0EC48006980B22E
:1092900020EA0405E9484069E14300EA1146E84351
:1092A00045EA0049E548C0F81090F04346EA004A14
:1092B000E248C0F814A04FF40040FFF72EFE8046AD
:1092C0004046BDE8F0872DE9F04704460F460025EB
:1092D00000264FF00408A946AA464FF40040FFF7C5
:1092E0001CFE8046B8F1040F31D1AFB1D34880697C
:1092F000204385B2D148C06940EA144086B2E843B1
:1093000045EA0049CD48C0F81890F04346EA004AC3
:10931000CA48C0F81CA015E0C848806980B220EA9D
:109320000405C648C069E14300EA1146E84345EA3E
:109330000049C248C0F81890F04346EA004ABF48C6
:10934000C0F81CA04FF40040FFF7E7FD8046404600
:10935000BDE8F087F0B50446042500260027680321
:10936000FFF7DBFD0546E043C6B244EA0647042D9D
:1093700001D1B24807604FF40040FFF7CEFD05462B
:109380002846F0BD2DE9F04704460F46002500268B
:109390004FF00408A946AA464FF40040FFF7BDFD70
:1093A0008046B8F1040F31D1B7B1A448806880B2CB
:1093B00020EA0405A148C068E14300EA1146E843F9
:1093C00045EA00499D48C0F80890F04346EA004A43
:1093D0009A48C0F80CA014E098488068204385B2F1
:1093E0009648C06840EA144086B2E84345EA00491E
:1093F0009248C0F80890F04346EA004A8F48C0F807
:109400000CA04FF40040FFF788FD80464046BDE8C1
:10941000F0872DE9F04704460F46002500264FF05F
:109420000408A946AA464FF40040FFF776FD80469F
:10943000B8F1040F31D1B7B18048006980B220EA99
:1094400004057E484069E14300EA1146E84345EAE5
:1094500000497A48C0F81090F04346EA004A77483D
:10946000C0F814A014E075480069204385B2734821
:10947000406940EA144086B2E84345EA00496F4833
:10948000C0F81090F04346EA004A6C48C0F814A0B7
:109490004FF40040FFF741FD80464046BDE8F087AD
:1094A0002DE9F0430446042500274FF000084FF053
:1094B000000900266803FFF730FD05465F4890F875
:1094C000009044EA0906F04387B246EA0748042DB3
:1094D00002D15A48C0F800804FF40040FFF71DFD4C
:1094E00005462846BDE8F0832DE9F04304460D46C5
:1094F000164604274FF000084FF000095048006856
:10950000C0F3034944EA0500304340EA0900C04380
:109510004FEA004844EA0500304340EA090040EAC7
:1095200008087803FFF7F9FC0746042F02D14348E7
:10953000C0F804804FF40040FFF7EFFC07463846C0
:10954000BDE8F083F0B504460425002600273C481A
:10955000006800F47000070C44EA0700C0430604EA
:1095600044EA070006436803FFF7D7FC0546042DCD
:1095700001D1324846604FF40040FFF7CEFC05466B
:109580002846F0BDF0B504460425002600272C48E7
:109590000068C0F3064744EA0700C043060444EAF3
:1095A000070006436803FFF7B8FC0546042D01D108
:1095B000224846604FF40040FFF7AFFC05462846BE
:1095C000F0BD1F480068C0F3075070471C48001DDD
:1095D000006870471A48643000687047184868305F
:1095E00000687047002016490968C9B2AA2901D04D
:1095F000012000E00020704700200021104A12687E
:1096000002F4807109B1012000E0002070470C488D
:109610000068C0F30340704739B1094A183A12682C
:109620000243074B183B1A6006E0054A183A1268D5
:109630008243034B183B1A60704700000000F81F7C
:109640001C3C024001460020054A12680A400AB14B
:10965000012000E0002070470149086070470000C9
:10966000183C024010B504468248844208D10121CA
:10967000084600F082FB0021012000F07EFB52E052
:109680007D48844208D10121022000F076FB0021B0
:10969000022000F072FB46E07848844208D10121A4
:1096A000042000F06AFB0021042000F066FB3AE091
:1096B0007348844208D10121082000F05EFB00219C
:1096C000082000F05AFB2EE06E48844208D10121A8
:1096D000102000F052FB0021102000F04EFB22E091
:1096E0006948844208D10121402000F046FB002156
:1096F000402000F042FB16E06448844208D101217A
:10970000802000F03AFB0021802000F036FB0AE0C8
:109710005F48844207D10121202000F02EFB002168
:10972000202000F02AFB10BDF0B502460B460021B8
:1097300000240025002000BF35E0012606FA01F4D0
:109740001E6806EA0405A5422CD110684F000326C6
:10975000BE40B0431E794F00BE40304310601E79BA
:10976000012E02D01E79022E12D190684F000326DE
:10977000BE40B0435E794F00BE4030439060908859
:1097800001268E40B0439E798E40B6B23043908021
:10979000D0684F000326BE40B043DE794F00BE4084
:1097A0003043D060491C1029C7D3F0BD4FF6FF717C
:1097B00001600021017141718171C171704708B56B
:1097C0004FF480320092009A0A430092009AC261DC
:1097D000C161009AC261C2690092C269009208BD6B
:1097E00002460020138A0B400BB1012000E000204C
:1097F00070470146088A704702460020938A0B4052
:109800000BB1012000E0002070470146888A7047B4
:1098100001837047418370470AB1018300E04183AF
:10982000704781827047828A4A4082827047F0B5D1
:10983000002300244D07ED0E02FA05F3CE1000F1CF
:10984000200555F826504E07F70E0F26BE40B543AB
:10985000CF1000F1200646F82750CE1000F1200569
:1098600055F8265045EA0304CE1000F1200545F8CE
:109870002640F0BD00000240000402400008024003
:10988000000C02400010024000180240001C024080
:10989000001402400E49086070470D494860704747
:1098A0000B49886070474AF6AA200949086070474A
:1098B0004CF6CC4006490860704701460020044A37
:1098C000D2680A400AB1012000E000207047000081
:1098D0000030004010B50121080700F070FA0021A7
:1098E0004FF0805000F06BFA10BD4D490862704790
:1098F000014600204B4A106820F0E0000843106049
:10990000704747490861704708B500220092444AF1
:10991000A03202440092009A116008BD404988625A
:1099200070473F4948627047014600203D4A106831
:1099300020F4C050084320F00C023A4B1A607047E4
:1099400058B13849096841F00101364A11601146A1
:10995000096841F4804111600AE03249096821F444
:109960008041304A11601146096821F001011160FF
:10997000704710B5024600202A4B186820F00300FB
:1099800010431860284B1B6823F00403264C236007
:10999000012901D130BF00E020BF10BD10B5024643
:1099A0000020204B186820F00300104318601E4B65
:1099B0001B6843F004031C4C2360012901D130BF14
:1099C00000E020BF184B1B6823F00403164C2360F3
:1099D00010BD1448006840F00400124908600846B1
:1099E000006840F0020008600F48006840F0040082
:1099F0000D49086000BF00BF30BF7047014600201E
:109A0000084A52680A400AB1012000E0002070476D
:109A10000449096841EA8001024A11607047000068
:109A200000000E420070004010ED00E0F9480068B0
:109A300040F48070F7490860F64808300068F6493D
:109A40000840F44908310860F2480068F3490840CA
:109A5000F04908600846006820F480200860ED485E
:109A60000830006820F47D00EA49083108600020D1
:109A7000091D086070470021E64A921C11701146CA
:109A80000870704710B501460022002300204A11DB
:109A9000012A02D1DF4C236802E0DE4C3434236813
:109AA00001F01F02012494401C400CB1012000E091
:109AB000002010BD38B5002000900024002500BF14
:109AC0003120FFF7DFFF05460098401C009000980A
:109AD000B0F5A04F01D0002DF2D03120FFF7D2FF1A
:109AE00008B1012400E00024204638BDC949C91D41
:109AF0000870704701460020C64A121D106820F405
:109B00006040084310607047C549086270470146CD
:109B10000020C04A121D106820F4F85040EA0120CD
:109B200010607047BE49086070470021B94A35325D
:109B30001170114608707047BA490860704710B537
:109B400041EA02030343B34C0A34237010BDB44905
:109B500008667047B24908677047B2492C310860FF
:109B6000704740EA0102AB4B0B331A707047014655
:109B70000020A84A0832106820F003000843106053
:109B80007047A4480830006800F00C007047014698
:109B90000020A04A0832106820F0F000084310604E
:109BA0007047014600209B4A0832106820F4E060AC
:109BB00008431060704701460020964A083210683A
:109BC00020F4605040EAC10010607047F0B50021F9
:109BD000002200230026002400258E4F08373F680E
:109BE00007F00C0131B1042912D0082913D00C2937
:109BF00037D113E0874F3F1D3F68C7F342356F1CD5
:109C00004FF0010C0CFA07FC4FEACC37076036E046
:109C1000854F076033E0854F076030E07D4F0837A0
:109C20003F6807F470127B4F08373F6807F4400322
:109C30007F4F07EB92473A78012707EB9353754F15
:109C400008373F6807F480362EB9774F5743B7FB84
:109C5000F3F7076004E0754F5743B7FBF3F707606E
:109C60000DE06C4F3F1D3F68C7F342356F1C4FF04E
:109C7000010C0CFA07FC4FEACC37076000BF00BFAD
:109C8000644F08373F6807F0F0010909694F7C5CB1
:109C90000768E74047605F4F08373F6807F4E061B7
:109CA000090A644F7C5C4768E7408760594F083772
:109CB0003F6807F46051C90A5E4F7C5C4768E74023
:109CC000C760F0BD002100F44032B2F5403F08D13A
:109CD000504A116821F0C04100F0C04211434D4A82
:109CE00011604C4A3432126822F44032494B34330A
:109CF0001A601A46126800F440331A43454B343355
:109D00001A607047474958310860704745495C31CF
:109D10000860704739B13F4A1C32126802433D4B1C
:109D20001C331A6006E03B4A1C3212688243394BEE
:109D30001C331A60704739B1364A20321268024328
:109D4000344B20331A6006E0324A203212688243D4
:109D5000304B20331A60704739B12E4A24321268D2
:109D600002432C4B24331A6006E02A4A243212683C
:109D70008243284B24331A60704739B1254A103288
:109D800012680243234B10331A6006E0214A103256
:109D9000126882431F4B10331A60704739B11D4A55
:109DA0001432126802431B4B14331A6006E0194A3E
:109DB000143212688243174B14331A60704739B15A
:109DC000144A183212680243124B18331A6006E024
:109DD000104A1832126882430E4B18331A607047CB
:109DE00039B10C4A2832126802430A4B28331A60F0
:109DF00006E0084A283212688243064B28331A606C
:109E00007047C9B1034A2C3212680243014B2C330C
:109E10001A6016E0003802400CC0FF88FEFFFEEE1C
:109E200000004742800647420024F400002D310123
:109E30001D000020260000201F4A126882431E4B8E
:109E40001A60704739B11C4A121D126802431A4B3E
:109E50001B1D1A6006E0184A121D12688243164B39
:109E60001B1D1A60704739B1134A1F3A127802431A
:109E7000114B1F3B1A7006E00F4A1F3A12788243BB
:109E80000D4B1F3B1A7070470B480830006840F0BC
:109E90008070094908310860704701460020064A71
:109EA000203A12680A400AB1012000E00020704701
:109EB00001491E39087070472C38024010B504461D
:109EC000BA48844208D101218014FFF767FF0021BE
:109ED000A014FFF763FF16E0B548844208D10121C2
:109EE0000014FFF76CFF00212014FFF768FF0AE061
:109EF000B048844207D10121C013FFF760FF002161
:109F0000E013FFF75CFF10BD10B50022028802F4D9
:109F100041520B884C8823438C882343CC882343AD
:109F20000C8923434C8923438C892343CC892343C5
:109F30001A430280838B4FF2FF74234083830B8A82
:109F4000038210BD2DE9FF5F05460C464FF0000966
:109F500002274FF000084FF0010B0026B246A88BF5
:109F60004FF240010840A88302202884B5F81C90D5
:109F7000A068022801D100BF33E0A08810B94FF0DB
:109F8000010B01E04FF0020B6846FFF71FFEDDF802
:109F900000A0E088B0F5007F0AD14FEA1A2000EB5C
:109FA00080004000A168B0FBF1F0401D86B20BE0DC
:109FB0004FEA4B10BAFBF0F000EB80004000A168C4
:109FC000B0FBF1F0401D86B20A20B6FBF0F606F0B9
:109FD0000108A6EB0800C0F34F074FF6FF7000EA38
:109FE0000828022F01DBFF2F02DD02274FF00008B7
:109FF000E08840EA080038432884A088A189084303
:10A00000618808432188084340F4006040EA090958
:10A01000A5F81C90BDE8FF9F002101804180818050
:10A02000C180018141818181C18107210182704705
:10A030000021018041808180C18002218160002156
:10A040008181704721B1028842F04002028004E021
:10A0500002884FF6BF731A400280704721B1828B8D
:10A0600042F48062828304E0828B4FF6FF331A4011
:10A070008283704702884FF2FF731A400280028881
:10A080000A4302807047B1F5804F04D1028842F440
:10A090008042028004E002884BF6FF731A4002807F
:10A0A00070474FF6FF62914204D0028842F48072FA
:10A0B000028004E002884FF6FF631A400280704776
:10A0C00021B1828842F00402828004E082884FF647
:10A0D000FB731A40828070470146888970478181EE
:10A0E000704721B1028842F40052028004E00288E5
:10A0F0004DF6FF731A4002807047018841F4805189
:10A100000180704702460020012901D0108B00E039
:10A11000908A70470146088A70471AB183880B43BA
:10A12000838002E083888B438380704730B50024AE
:10A1300000230C110125A540ABB21AB185881D433F
:10A14000858002E085889D43858030BD02460020E1
:10A1500013890B400BB1012000E000207047CA4377
:10A1600002817047F0B5024600200024002300253C
:10A1700001F00F070126BE40B4B20B1101269E402C
:10A18000B3B2968806EA03051689264016B10DB1CA
:10A19000012000E00020F0BD10B5002201F00F0406
:10A1A0000123A3409AB2D343038110BD0030014084
:10A1B00000380040003C004010B501210846FFF780
:10A1C000EDFD00210120FFF7E9FD10BD0020B2499F
:10A1D0000860091D0860091D0860091D0860091D47
:10A1E0000860091D0860091D08607047AB490860D8
:10A1F0007047AA48006800F44070704730B1A74922
:10A20000496841F00101A54A516005E0A349496848
:10A2100021F00101A14A5160704730B500228B073F
:10A220001C0F0F2303FA04F29C4B08338C1053F8D5
:10A2300024309343994C08348D1044F8253023463C
:10A240008C1053F824308C07240F00FA04F42343B5
:10A25000924C08348D1044F8253030BD0146002062
:10A260008D4A106820F44030084310607047024661
:10A270000020894B1868104302F48023B3F5802F27
:10A2800002D120F00F00084302F40023B3F5002FA1
:10A2900003D120F0F00040EA011002F48013B3F57E
:10A2A000801F03D120F4706040EA012002F4001303
:10A2B000B3F5001F03D120F4704040EA0130764B23
:10A2C0001860704739B1744A121F12680243724B0A
:10A2D0001B1F1A6006E0704A121F126882436E4B01
:10A2E0001B1F1A60704739B16B4A121F12688243F4
:10A2F000694B1B1F1A6006E0674A121F126802436F
:10A30000654B1B1F1A60704710B50022C20F20F06A
:10A31000004081B13AB1604B1B1D1B6803435E4C8A
:10A32000241D236017E05C4B08331B6803435A4C21
:10A33000083423600FE03AB1574B1B1D1B68834361
:10A34000554C241D236006E0534B08331B688343A0
:10A35000514C0834236010BD40B14F49091D0968B4
:10A3600041F000414C4A121D116007E04A49091DA5
:10A37000096821F00041484A121D1160704710B56C
:10A38000012810D13AB1444B0C331B688B43424C2B
:10A390000C3423607FE0404B0C331B680B433E4C76
:10A3A0000C34236077E0022813D14AB13A4B0C33C6
:10A3B0001B68CC4303EA0443374C0C3423606AE047
:10A3C000354B0C331B6843EA0143334C0C34236098
:10A3D00061E0032810D13AB12F4B10331B688B4337
:10A3E0002D4C1034236056E02B4B10331B680B436D
:10A3F000294C103423604EE0042813D14AB1264B77
:10A4000010331B68CC4303EA0443234C103423600D
:10A4100041E0214B10331B6843EA01431E4C1034CA
:10A42000236038E0052810D13AB11B4B14331B6868
:10A430008B43194C143423602DE0174B14331B68E5
:10A440000B43154C1434236025E0062813D14AB180
:10A45000114B14331B68CC4303EA04430E4C1434F1
:10A46000236018E00C4B14331B6843EA01430A4C89
:10A47000143423600FE03AB1074B18331B688B4349
:10A48000054C1834236006E0034B18331B680B435C
:10A49000014C1834236010BD047C004000000140D2
:10A4A00010B50446F748844209D101218803FFF71B
:10A4B00075FC00214FF48040FFF770FC32E0F24859
:10A4C000844209D101214804FFF779FC00214FF4AF
:10A4D0000030FFF774FC25E0EC48844209D10121EB
:10A4E0008804FFF76CFC00214FF48020FFF767FC25
:10A4F00018E0E748844209D10121C804FFF75FFC56
:10A5000000214FF40020FFF75AFC0BE0E1488442A1
:10A5100008D101210805FFF752FC00214FF48010FB
:10A52000FFF74DFC10BD2DE9FF4705460E46002400
:10A53000A14600BFA046B08900B100BF2C8A24F418
:10A540004054F08804432C82AC8941F20C6084436F
:10A55000B08831890843718908430443AC81AC8ACF
:10A5600024F44074B0890443AC826846FFF72EFBA4
:10A57000C448854202D1DDF80C9001E0DDF8089076
:10A58000A88900F4004040B109EBC90000EB0910B4
:10A5900031684900B0FBF1F707E009EBC90000EBB7
:10A5A000091031688900B0FBF1F76420B7FBF0F0C7
:10A5B00004012009642101FB1078A88900F40040FF
:10A5C00040B1322000EBC800B0FBF1F000F0070012
:10A5D000044308E0322000EB08106421B0FBF1F0E6
:10A5E00000F00F0004432C81BDE8FF874FF41651A3
:10A5F000016000218180C18001810C214181002105
:10A600008181704710B502460020108A20F47060E6
:10A610000B884C8823438C882343CC8823431843DE
:10A62000108210BD0021018041808180C18070476F
:10A6300021B1828942F40052828104E082894DF680
:10A64000FF731A4082817047028B02F47F420283BB
:10A65000028B0A430283704721B1828942F400428F
:10A66000828103E08289C2F30E028281704721B1A8
:10A67000828A42F40062828204E0828A4FF2FF738F
:10A680001A4082827047C1F30802828070470146F7
:10A690008888C0F308007047028A4FF6F0731A40AA
:10A6A0000282028A0A430282704721B1828942F003
:10A6B0000202828104E082894FF6FD731A40828192
:10A6C000704782894FF2FF731A40828182890A4360
:10A6D00082817047028A4FF6DF731A400282028A33
:10A6E0000A430282704721B1028A42F48042028208
:10A6F00004E0028A4BF6FF731A4002827047818998
:10A7000041F001018181704721B1828A42F0080243
:10A71000828204E0828A4FF6F7731A408282704781
:10A72000028BD2B20283028B42EA0122028370477B
:10A7300021B1828A42F02002828204E0828A4FF6AE
:10A74000DF731A408282704721B1828A42F0100280
:10A75000828204E0828A4FF6EF731A408282704749
:10A76000828A4FF6FB731A408282828A0A4382826F
:10A77000704721B1828A42F00202828204E0828A1A
:10A780004FF6FD731A40828270471AB1838A0B43D9
:10A79000838202E0838A8B4383827047F0B503464D
:10A7A000002400260025002040F66A17B94200D197
:10A7B00000BF1846C1F3421401F01F06012707FA33
:10A7C00006F5012C01D10C3004E0022C01D110302F
:10A7D00000E014301AB107682F43076002E00768F1
:10A7E000AF430760F0BD02460020B1F5007F00D105
:10A7F00000BF13880B400BB1012000E00020704720
:10A8000001F40072B2F5007F00D100BFCA4302809C
:10A81000704770B50246002400230025002040F652
:10A820006A16B14200D100BFC1F3421501F01F0307
:10A83000012606FA03F3012D02D19689334006E082
:10A84000022D02D1168A334001E0968A33400C1261
:10A85000012606FA04F41688344013B10CB1012025
:10A8600000E0002070BD10B50022002340F66A14FD
:10A87000A14200D100BF0A1201249440A3B2DC43DC
:10A88000048010BD003801400044004000480040F2
:10A89000004C00400050004010B50446B4F1804F19
:10A8A00008D101210846FFF78AFA00210120FFF7AD
:10A8B00086FA5EE0FB48844208D101210220FFF7BE
:10A8C0007EFA00210220FFF77AFA52E0F64884422D
:10A8D00008D101210420FFF772FA00210420FFF7BC
:10A8E0006EFA46E0F148844208D101210820FFF7C2
:10A8F00066FA00210820FFF762FA3AE0EC48844249
:10A9000008D101211020FFF75AFA00211020FFF78B
:10A9100056FA2EE0E748844208D101212020FFF7B3
:10A920004EFA00212020FFF74AFA22E0E248844252
:10A9300008D101210420FFF731FA00210420FFF79C
:10A940002DFA16E0DD48844208D101210820FFF7E6
:10A9500025FA00210820FFF721FA0AE0D8488442AE
:10A9600007D101211020FFF719FA00211020FFF76D
:10A9700015FA10BD00220288B0F1804F08D0C94BF3
:10A98000984205D0C84B984202D0C84B984204D197
:10A990004FF68F731A404B881A43C54B984207D025
:10A9A000C44B984204D04FF6FF431A400B891A4318
:10A9B00002804B68C3620B88038501238382704742
:10A9C0004FF0FF31416000210180018141807047DB
:10A9D0000185828270470A46002101884FF68F73F5
:10A9E000194011430180704741627047C16270474E
:10A9F0000146486A70470146088D704721B10288B8
:10AA000042F00202028004E002884FF6FD731A4011
:10AA10000280704721B1028842F00402028004E003
:10AA200002884FF6FB731A400280704721B10288FA
:10AA300042F08002028004E002884FF67F731A40E1
:10AA40000280704702884FF6F7731A40028002882E
:10AA50000A430280704702884FF6FF431A40028083
:10AA600002880A430280704721B1028842F0010245
:10AA7000028004E002884FF6FE731A40028070479D
:10AA800030B500230022048C4FF6FE752C40048460
:10AA9000028C038B4FF68F742340AC1E23400C882E
:10AAA00023436C1E22400C8922434C8822434C686D
:10AAB00044630383028430BD30B500230022048C3C
:10AAC0004FF6EF752C400484028C038B48F6FF741C
:10AAD00023400C884FF6FF7505EA042423434FF604
:10AAE000DF7422400C8905EA041422434C8805EAED
:10AAF000041422434C6884630383028430BD30B560
:10AB000000230022048C4FF6FF652C400484028C45
:10AB1000838B4FF68F7423400C8823434FF6FF54EA
:10AB200022400C894FF6FF7505EA042422434C8825
:10AB300005EA042422434C68C4638383028430BD45
:10AB400030B500230022048C4EF6FF752C4004849F
:10AB5000028C838B48F6FF7423400C884FF6FF75F8
:10AB600005EA042423434DF6FF7422400C8905EACC
:10AB7000043422434C8805EA043422434C680464BC
:10AB80008383028430BD00210180418041600181C6
:10AB9000704770B503460020002418461830012580
:10ABA0008D40ACB21D8CA5431D8409B1082909D183
:10ABB00000EB6100056825F0700505600568154328
:10ABC00005600EE00D1FC5F34E052844056825F409
:10ABD000E045056005684FF6FF7606EA0226354334
:10ABE000056070BD4163704781637047C163704702
:10ABF000016470470A460021018B4FF68F7319409C
:10AC00001143018370470A460021018B48F6FF7308
:10AC100019404FF6FF7303EA02231943018370477B
:10AC20000A460021818B4FF68F73194011438183AF
:10AC300070470A460021818B48F6FF7319404FF692
:10AC4000FF7303EA02231943818370470A460021F8
:10AC5000018B4FF6F77319401143018370470A4681
:10AC60000021018B4FF2FF7319404FF6FF7303EA87
:10AC700002231943018370470A460021818B4FF656
:10AC8000F77319401143818370470A460021818B75
:10AC90004FF2FF7319404FF6FF7303EA0223194383
:10ACA000818370470004004000080040000C004011
:10ACB000001000400014004000080140000C01405A
:10ACC000001001400A460021018B4FF6FB7319402A
:10ACD0001143018370470A460021018B4FF6FF3371
:10ACE00019404FF6FF7303EA0223194301837047AB
:10ACF0000A460021818B4FF6FB7319401143818373
:10AD000070470A460021818B4FF6FF3319404FF6FA
:10AD1000FF7303EA02231943818370470A46002127
:10AD2000018B4FF67F7319401143018370470A4628
:10AD30000021018BC1F30E014FF6FF7303EA0223DA
:10AD40001943018370470A460021818B4FF67F73B8
:10AD500019401143818370470A460021818BC1F35A
:10AD60000E014FF6FF7303EA0223194381837047F4
:10AD70000A460021018C4FF6FD73194011430184EE
:10AD800070470A460021018C4FF6DF7319404FF6D9
:10AD9000FF7303EA02131943018470470A46002136
:10ADA000018C4FF6FF5319404FF6FF7303EA02235D
:10ADB0001943018470470A460021018C4DF6FF7348
:10ADC00019404FF6FF7303EA0233194301847047B9
:10ADD00002894FF6F7731A40028102890A43028101
:10ADE000704730B5002301248C40A3B2048C9C43EF
:10ADF0000484048C02FA01F5ADB22C43048430BD06
:10AE0000828B4FF2FF331A408283828B4FF6FF739F
:10AE100003EA01231A4382837047F0B50C461546B6
:10AE2000002100220026078C4EF6FF7C07EA0C0763
:10AE30000784818B028C4FF6FF7707EA043640F6D1
:10AE4000FF4739404FF6FF7707EA052739434FF6AA
:10AE5000FF7707EA0337394345F6FF773A4046F470
:10AE600080573A4381830284F0BD828B4FF6F3739F
:10AE70001A408283828B0A4382837047F0B50C4666
:10AE80001546002100220026078C4FF6FF6C07EACA
:10AE90000C070784818B028C4FF6FF7707EA0426A4
:10AEA0004FF60C7739404FF6FF7707EA03172F4329
:10AEB00039434FF2FF573A4046F480773A43818353
:10AEC0000284F0BD028B4FF2FF331A400283028BE3
:10AED0004FF6FF7303EA01231A4302837047F0B56C
:10AEE0000C461546002100220026078C4FF6EF7C09
:10AEF00007EA0C070784018B028C4FF6FF7707EAFD
:10AF0000041640F6FF4739404FF6FF7707EA03374C
:10AF100039434FF6FF7707EA052739434FF65F7746
:10AF20003A4046F010073A4301830284F0BD028B99
:10AF30004FF6F3731A400283028B0A430283704771
:10AF4000F0B50C46154600210022068C4FF6FE7720
:10AF50003E400684018B028C4FF60C7631407E1CFD
:10AF600006EA03162E4331434FF6F576324044F09D
:10AF70000106324301830284F0BD70B505460C46DC
:10AF8000208850B92389A28861882846FFF7D8FF16
:10AF9000E1882846FFF7CBFF25E0208804280AD166
:10AFA0002389A28861882846FFF799FFE18828460F
:10AFB000FFF788FF17E0208808280AD12389A28894
:10AFC00061882846FFF75AFFE1882846FFF74DFFC2
:10AFD00009E02389A28861882846FFF71EFFE188DF
:10AFE0002846FFF70DFF70BD00210180418001213F
:10AFF00081800021C180018170472DE9F041054623
:10B000000C4600260127608808B9022600E00026C9
:10B01000A088012801D1022700E001272088A0B9DB
:10B020002389A28861882846FFF78AFFE18828469D
:10B03000FFF77DFF23893A4631462846FFF74FFF49
:10B04000E1882846FFF73EFF13E02389A288618844
:10B050002846FFF744FFE1882846FFF733FF23899E
:10B060003A4631462846FFF76BFFE1882846FFF74E
:10B070005EFFBDE8F0810146486B70470146886B72
:10B0800070470146C86B70470146086C70471AB19B
:10B0900083890B43838102E083898B4383817047DB
:10B0A0008182704702460020138A0B400BB10120B9
:10B0B00000E000207047CA430282704730B5024664
:10B0C000002000230024158A05EA0103958905EA7A
:10B0D000010413B10CB1012000E0002030BDCA43CF
:10B0E0000282704741EA0203A0F8483070471AB163
:10B0F00083890B43838102E083898B43838170477B
:10B1000021B1828842F00802828004E082884FF6F2
:10B11000F7731A408280704701894FF6F872114028
:10B12000018170470A46002101894FF68F7319404B
:10B1300011430181704730B504460D46294620462B
:10B14000FFF7F0FF208940F00700208130BD2DE996
:10B15000F04104460D4616461F46602D06D13B467B
:10B16000012231462046FFF7BAFE05E03B460122A8
:10B1700031462046FFF7E4FE29462046FFF7D2FF7E
:10B18000208940F007002081BDE8F08130B50C46F1
:10B1900000210189C9B24FF6FF7505EA0325154361
:10B1A00025432943018130BD2DE9F04105460E4676
:10B1B00017469846002443463A4631462846FFF74C
:10B1C000E5FF2C894FF6F870044044F007044FF671
:10B1D0008F70044044F070042C81BDE8F081F0B51C
:10B1E00004460D4616461F463B4632462946204633
:10B1F000FFF7CCFF208940F480402081F0BD828899
:10B200004FF68F731A40828082880A43828070478B
:10B2100002894FF6F8731A40028102890A430281BB
:10B22000704702894FF67F731A40028102890A43F0
:10B2300002817047F0B50C4615461E4600210022DB
:10B2400000230189028B038C4FF6F87739402143A4
:10B250004FF6FC473A4040F201173A434FF6DD778C
:10B260003B404FF6FF7707EA06172F433B43018128
:10B2700002830384F0BD21B1828842F08002828083
:10B2800004E082884FF67F731A408280704730F85E
:10B29000502F02EA1142028002888BB21A4320F832
:10B2A000502970470246002005E011F8013B02F8E2
:10B2B000013B431CD8B20B78002BF6D113707047BA
:10B2C0002DE9F04105460E4614460027FD4800785A
:10B2D000002804DD112020700020BDE8F0812878CE
:10B2E000012808D0022807D0032802D0042804D15E
:10B2F00000E000BF00BF00BF03E00120207000207D
:10B30000EBE700BF02F042F9074605F10F013046B6
:10B31000FFF7C8FF8046384602F03CF90020207055
:10B320004046DAE70146002002E0491C421CD0B248
:10B330000A78002AF9D170472DE9F04105460F46F9
:10B3400014464FF00008DF480078002803DD122083
:10B350002070BDE8F0812878012808D0022807D0A5
:10B36000032802D0042804D100E000BF00BF00BFC2
:10B3700002E001202070ECE700BF02F007F98046F0
:10B380003846FFF7CFFF06460F2E05DD404602F098
:10B3900001F90B202070DCE7394605F10F00FFF7BB
:10B3A00081FF404602F0F6F80020207000BFD0E791
:10B3B000002400BF02F0EAF80446C3480068401CBD
:10B3C000C1490860204602F0E5F802F08DF8F1E787
:10B3D00000B587B0032000218022BC4BCDE90132AB
:10B3E000CDE903104FF6FF701F23B94A0090AFF26A
:10B3F0003F0001F081FC06AAB6A11F2001F0D7FD95
:10B4000007B000BD04E0002200F8012B4A1E91B2F3
:10B410000029F8DC704730B54FF4A071B148FFF750
:10B42000F1FFB04B03F1200500240AE00020187062
:10B430005D603F20D8730021197420332035601CD3
:10B4400084B2092CF2DB0020187058603F20D873BA
:10B4500000211974A348A449086030BD30B54FF4E9
:10B46000E761A248FFF7CEFF8021A148FFF7CAFF9E
:10B470009E4B03F1580500240AE05D613F2083F8EC
:10B48000480000214920C15458335835601CC4B2CB
:10B49000142CF2D3002058613F2083F8480000218B
:10B4A0004920C1540020934908609048924908609F
:10B4B00030BD0022914B1A709149002004E0002217
:10B4C00001F8012B421CD0B20428F8DB00228D4B7E
:10B4D0001A708D4B1A708D4B1A608D4B1A60704725
:10B4E00000208C490860774908708B4908708B49A7
:10B4F00008708B4908708B49086073490860704771
:10B5000010B501F0EDFFFFF7EBFFFFF7D2FFFFF7FC
:10B51000A5FFFFF780FF00F08BFEFFF759FF01F05A
:10B52000E0FF10BD7E480078012808D1654800780A
:10B53000FF2804D263480078401C624908707047B5
:10B5400079496E4A1278885C6D49095C764A515C8B
:10B5500001EBC0016C4A1170704710B500247048AF
:10B560000078012830D102F011F8044655480078DF
:10B57000002804DD53480078401E524908705148A5
:10B580000078F0B964480078D8B9FFF7D9FF5E4871
:10B5900000785C490978884213D055485A4909789F
:10B5A00050F821005949086008460068406B401C6B
:10B5B000096848635B480068401C5A49086002F00B
:10B5C00001F8204601F0E6FF10BD10B554480078A0
:10B5D00090B9FFF7B5FF4C4800784A4908704448D5
:10B5E0004949097850F82100484908600846006830
:10B5F0004749086001F0D1FF10BD70B5002601F089
:10B60000C4FF01F0C3FF064642480068401C4149A0
:10B610000860304601F0BEFF41480078012850D153
:10B620004248007820B1012804D0022809D103E063
:10B6300001250BE0002509E0012501203B490870A8
:10B6400004E0012500203949087000BF00BF05B99A
:10B6500070BD2848046833E001F098FF0646608D0D
:10B6600050B3608D401E80B2608528BB94F82C00DA
:10B6700000F0370040B114F82C0F20F03700207094
:10B68000012060702C3C02E0002084F82D0094F82A
:10B690002C0000F0080078B93034A07817490978F8
:10B6A00008431649087020781549085C61780843FA
:10B6B00014F83019124A50546469304601F06AFF98
:10B6C00036E039E044000020500000209C160020A5
:10B6D0009818002075432F4F532D49492049646C19
:10B6E00065000000D01400203C0000201C19002040
:10B6F0009C18002060000020580000204800002016
:10B700004900002046000020470000205C00002087
:10B710005400002068000020450000204E0000205A
:10B720004D00002038000020B466020864000020AC
:10B7300094F82E001F288FD100BF89E74FF48F7037
:10B740007047704710B590F8302001F10B039B5CF7
:10B7500090F83140A34301F10B04A35423469B5CB2
:10B7600023B98B7A90F83240A3438B7210BD2DE938
:10B77000F04F05460F4690469946A87AA4490E5CBC
:10B7800005F10B00805D11F800B00BEBC60000F076
:10B79000FF0AA04850F82A4000202034608127602A
:10B7A000207B20EA0800207384F80D90207B203C49
:10B7B00000F0080068B994F8320097490978084306
:10B7C000954908709548805D94F831100843934975
:10B7D000885529462046FFF7B5FF5046BDE8F08F53
:10B7E00010B58F4A1268D0618D4A126892F83030D5
:10B7F00000F10B02D25C8A4B1B6893F831301A437C
:10B80000874B1B6893F8304000F10B031A55827A7E
:10B81000834B1B6893F832301A438272804A126855
:10B8200092F830107D4A525C7D4B1B6893F83130A2
:10B830009A437A4B5A541A46525C42B9784A126873
:10B8400092F83230744A12789A43734B1A7010BDD2
:10B850000023837200F10B01002204E0002301F8B1
:10B86000013B531CDAB2042AF8DB704705E011F8FB
:10B87000013B00F8013B531E9AB2002AF7DC7047E7
:10B8800010B5002401F082FE044666480078F0B945
:10B8900065480078D8B9FFF753FE644800786449DA
:10B8A0000978884213D05B486049097850F8210034
:10B8B0006049086008460068406B401C096848639E
:10B8C0005D480068401C5C49086001F076FE204637
:10B8D00001F060FE10BD7CB5002514E069462846E5
:10B8E00001F008FC064666B94A4850F8254044B1C4
:10B8F000012C06D0D4E9020100EB810020640198FC
:10B900006064681CC5B21F2DE8DD7CBD2DE9F84FD1
:10B9100005460E4617469846DDE90BABDDF8289044
:10B920000020009001F032FE009044480468002C92
:10B9300069D054F8140F41490860009801F02AFEBC
:10B9400044F8146CA576002020766076E08244F8F6
:10B9500010AC44F8089C44F80C7C24F804BC24F88F
:10B96000028CE077E810207705F00700E076217F71
:10B9700001208840A077E17E012088406077002088
:10B98000A0602061E0602062A0626062E0622063EB
:10B990003F2084F83400143C002149200155204602
:10B9A00001F0F2FD204601F09DFD01F0EFFD009059
:10B9B000184840F825402248006860610020A061D6
:10B9C0001F48006810B11E48006884611C4804606C
:10B9D0003034A0781049097808430F49087020785E
:10B9E0000E49085C6178084314F830190B4A50542A
:10B9F00014480078401C13490870009801F0CAFDF3
:10BA00000020BDE8F88F009801F0C4FD4220F8E75F
:10BA1000B46602089C18002048000020490000205D
:10BA20005400002044000020450000204700002072
:10BA3000460000205C000020380000205800002054
:10BA4000600000204E0000202DE9F05F04460F4604
:10BA500091461E464FF0000B2078052804D00120A7
:10BA600030700020BDE8F09F09F0800ABAF1000FA5
:10BA700004D029F080094FF0010801E04FF00008E0
:10BA80000020307001F082FD8346B9F1000F2CD008
:10BA9000B9F1010F3BD0B9F1020F03D0B9F1030F97
:10BAA00046D111E0208900EA0705BD4206D1B8F170
:10BAB000010F05D12089A843208101E0702030705A
:10BAC000584601F067FD3AE0208900EA070535B1E4
:10BAD000B8F1010F05D12089A843208101E0702031
:10BAE0003070584601F056FD29E0208927EA00050C
:10BAF000BD4206D1B8F1010F05D12089284320812C
:10BB000001E070203070584601F044FD17E02089B4
:10BB100027EA000535B1B8F1010F05D12089284386
:10BB2000208101E070203070584601F033FD06E0BE
:10BB3000584601F02FFD00256F20307000BF00BF78
:10BB400028468FE72DE9F04106460D460027F848C4
:10BB50000078002804DD102028700020BDE8F08166
:10BB600001F014FD0746F348046894B1006840688A
:10BB7000F0490860052020702681002060603F2089
:10BB8000A0720021E172384601F004FD0020287007
:10BB900004E0384601F0FEFC722028702046DDE704
:10BBA00030B501464A6808682AB9CC68606028B197
:10BBB0000025456002E0106000B142608B680025FE
:10BBC0005D6230BDF0B506460F46B46800202834EB
:10BBD00060802780207920F0200020710020607193
:10BBE0002079283C88B93034A078D34909780843B3
:10BBF000D14908702078D149085C6178084314F86D
:10BC00003019CE4A5054012500E000253046FFF798
:10BC1000C7FF2846F0BD2DE9F04704468946154682
:10BC20004FF0000AC2480078002804DD0F20287079
:10BC30002046BDE8F0872078052803D00120287031
:10BC40002046F6E701F0A2FC8246606808B10127B1
:10BC500000E00027B9F1000F03D0B9F1010F40D186
:10BC60001BE09FB93F20A0720021E17200202070EC
:10BC7000B0480068606000202081AE4804605046F3
:10BC800001F088FC00202870002605E0504601F0F5
:10BC900081FC4920287026462AE0D4F8048005E07B
:10BCA00000214046FFF78EFFD8F80080B8F1000F62
:10BCB000F6D13F20A0720021E172002020709D4843
:10BCC00000686060002020819A480460504601F0BE
:10BCD00061FC012F01D1FFF7D3FD00202870002661
:10BCE00006E0504601F056FC07202870264600BFAB
:10BCF00000BF30469DE72DE9F04105460E4614464B
:10BD000000278B480078002804DD112020700020D7
:10BD1000BDE8F08101F03AFC07462878052806D0F6
:10BD2000384601F037FC012020700020F0E705F1D3
:10BD30000A013046FFF7B6FA8046384601F02AFC81
:10BD4000002020704046E3E72DE9F04105460F460C
:10BD500014464FF0000876480078002803DD1220D2
:10BD60002070BDE8F08101F011FC8046287805289C
:10BD700005D0404601F00EFC01202070F1E7384666
:10BD8000FFF7D0FA06460F2E05DD404601F002FC13
:10BD900073202070E5E7394605F10A00FFF782FAC3
:10BDA000404601F0F7FB0020207000BFD9E7F0B556
:10BDB0001446059E624F3F6897F82C7047F02007A5
:10BDC000DFF87CC1DCF800C08CF82C700027DFF8AD
:10BDD00070C1DCF800C08CF82D70594F3F687E852B
:10BDE000574F3F6879620C828B74554F3F688F6064
:10BDF00047680F6000274F60C860456805B16960FB
:10BE000041604F4F3F6897F830204C4FBF5CDFF8E0
:10BE100030C1DCF800C09CF831C027EA0C07DFF81D
:10BE20001CC10CF802706746BF5C5FB9444F3F68A5
:10BE300097F832C0404F3F7827EA0C07DFF8F8C088
:10BE40008CF80070F0BD2DE9F04F89B005460F4623
:10BE500091469A46129E00200290354800780028AC
:10BE600005DD02203070002009B0BDE8F08F3548B4
:10BE70000078002803DD0D2030700020F4E72878DA
:10BE8000052803D0012030700020EDE709F0800B79
:10BE9000BBF1000F04D029F080094FF0010801E048
:10BEA0004FF0000801F072FB0290B9F1000F57D07B
:10BEB000B9F1010F77D0B9F1020F03D0B9F1030F37
:10BEC00070D120E0288900EA0704BC420FD1B8F104
:10BED000010F02D12889A0432881194800680485F0
:10BEE000029801F057FB002030702046BCE74B461B
:10BEF0003A4604A92846CDF800A0FFF758FF02985B
:10BF000001F048FB77E0288900EA0704E4B1B8F1C2
:10BF1000010F02D12889A0432881094800680485BF
:10BF2000029801F037FB0020307020469CE70000AB
:10BF3000440000204000002048000020490000206C
:10BF400054000020450000204B463A4604A92846EC
:10BF5000CDF800A0FFF72BFF029801F01BFB4AE091
:10BF6000288927EA0004BC420FD1B8F1010F02D1A1
:10BF7000288920432881BF4800680485029801F081
:10BF800009FB0020307020466EE74B463A4604A974
:10BF90002846CDF800A0FFF70AFF029801F0FAFA50
:10BFA00029E000E01FE0288927EA00047CB1B8F10D
:10BFB000010F02D1288920432881AE4800680485FA
:10BFC000029801F0E7FA0020307020464CE74B461B
:10BFD0003A4604A92846CDF800A0FFF7E8FE0298EB
:10BFE00001F0D8FA07E0029801F0D4FA00246F209B
:10BFF0003070204638E700BFFFF742FC01F0C6FA78
:10C0000002909C48006890F82D0020B39948006881
:10C0100090F82D00039000209649096881F82D00C2
:10C0200004A8FFF7BDFD00209249096881F82C00A3
:10C03000029801F0AFFA00240398012805D00228E5
:10C0400002D10E20307003E000BF0A20307000BF24
:10C0500000BF204608E787480068048DB8F1010F4B
:10C060001ED1B9F1000F0ED0B9F1010F0CD0B9F10A
:10C07000020F03D0B9F1030F0AD100E000BF2889F5
:10C08000A04328810BE000BF28892043288106E0D7
:10C09000029801F07FFA6F2030700020E4E600BFC4
:10C0A000029801F077FA002030702046DCE670B587
:10C0B000002501F06BFA05466E480068048D28469D
:10C0C00001F068FA204670BD2DE9FC5F0446894600
:10C0D00092461E46002000902078052804D00120BA
:10C0E00030700020BDE8FC9F01F050FA0090BAF1DA
:10C0F000000F03D0BAF1010F0AD104E0208920EA31
:10C10000090020810BE0208940EA0900208106E037
:10C11000009801F03FFA712030700020E2E700BF84
:10C120004FF0000B656855E0A87C40B3012838D07B
:10C13000022802D0032844D111E02089298A00EA8C
:10C140000107288AB84209D139462846FFF73AFD47
:10C150008046B8F1010F01D14FF0010B38E0208982
:10C16000298A00EA01074FB139462846FFF72AFD20
:10C170008046B8F1010F01D14FF0010B28E0288A69
:10C18000218920EA0107288AB84209D13946284680
:10C19000FFF718FD8046B8F1010F01D14FF0010BF8
:10C1A00016E0288A218920EA01074FB1394628463E
:10C1B000FFF708FD8046B8F1010F01D14FF0010BE8
:10C1C00006E0009801F0E6F96F203070002089E762
:10C1D00000BF2D68002DA7D1009801F0DBF9BBF15D
:10C1E000010F01D1FFF74CFB01F0D0F9009020893D
:10C1F0000190009801F0CEF900203070019871E7AD
:10C200002DE9F04104460D4600272078052804D08A
:10C21000012028700020BDE8F08101F0B7F9074641
:10C220002689384601F0B6F9002028703046F2E73A
:10C2300070B58C211048FFF7E5F80F4C04F11C068F
:10C2400000250AE00020207066603F20A0720021D7
:10C25000E1721C341C36681C85B2042DF2DB002010
:10C26000207060603F20A0720021E1720248034903
:10C27000086070BD5400002010160020400000200F
:10C280002DE9F04104460D4600272078042804D00B
:10C29000012028700020BDE8F081FA4800780028CD
:10C2A00003DD022028700020F5E701F06FF9074652
:10C2B00020890612207AFF2820D1208900F47F40AF
:10C2C00020812089F049096891F82E1008432081C7
:10C2D000ED4800686060EC48006890F82E00B042BD
:10C2E00005DC384601F056F97820287004E038461D
:10C2F00001F050F9002028700120CCE7384601F009
:10C3000049F90020287000BFC5E72DE9F041054636
:10C310000E460027DB480078002804DD102030702E
:10C320000020BDE8F08101F031F90746D74850F808
:10C33000250030B1384601F02DF92820307000205A
:10C34000EFE70120D14941F82500D14804684CB9F4
:10C35000002041F82500384601F01CF90420307017
:10C360002046DEE7CA4800684068C9490860384688
:10C3700001F010F904202070FF2040EA0520208100
:10C38000002060603F20E073002121742046FFF709
:10C390005FFA002030702046C3E730B590F83020B7
:10C3A000BC4B9B5C90F83140A343BA4CA35423464A
:10C3B0009B5C33B990F83240B74B1B78A343B64C23
:10C3C000237000F82E1FC1F3C203837001F007032E
:10C3D000437084780123A340037144780123A34070
:10C3E000C3700379AC4C24782343AB4C237083781F
:10C3F000A84CE35CC478234384782E38A54D2B5594
:10C40000A24B43F8210030BD2DE9F84F04468A467F
:10C410001546002000902078042804D001202870C0
:10C420002046BDE8F88F97480078002803DD0F20EC
:10C4300028702046F5E701F0A9F80090A07A10B125
:10C440004FF0010801E04FF00008BAF1000F03D0EF
:10C45000BAF1010F5CD122E0B8F1000F18D13F20F2
:10C46000E07300212174208907120020874941F8D8
:10C470002700207086480068606000202081844882
:10C480000460009801F086F800202870002605E07E
:10C49000009801F07FF84920287026463FE0208967
:10C4A000071294F808B0D4F80490B9F1000F07D03F
:10C4B00099F82E00B84203D159464846FFF76DFF60
:10C4C00005E00023102219462046FFF750F9A07A14
:10C4D0000028F6D13F20E073002121742089071243
:10C4E00000206A4941F827002070694800686060B0
:10C4F0000020208166480460009801F04BF8B8F1F4
:10C50000010F01D1FFF7BCF900202870002606E0DA
:10C51000009801F03FF807202870264600BF00BFB2
:10C5200030467EE72DE9F74F82B0054617460020DA
:10C5300001902878042804D00120387005B0BDE8A7
:10C54000F08F50480078002802DD02203870F5E7AF
:10C5500052480078002802DD0D203870EEE701F027
:10C5600015F8019028894FEA2028287AFF281FD142
:10C57000288900F47F40288128894349096891F877
:10C580002E10084328814048006868603E480068D3
:10C5900090F82E00404505DC019800F0FBFF782064
:10C5A000387004E0019800F0F5FF00203870C5E70E
:10C5B00095F808B06C6894F82E00404561DD32486B
:10C5C000006890F82E0058457FDA94F83090314892
:10C5D00010F8090094F831100840B0B12D4810F857
:10C5E000090094F8311088432A4901F809000846E7
:10C5F00010F8090030B994F83210274800788843C1
:10C60000254908704FF0010A15E0E6698EB114F86B
:10C61000301F06F10B00405C6178884314F8302924
:10C6200006F10B01885420B9B07A94F8321088438F
:10C63000B0724FF0000A04F82E8F2078C010A0705E
:10C64000207800F007006070A178012088402071F8
:10C65000617801208840E0702E3CBAF1010F1FD1B3
:10C660003034A0780C49097808430B4908702078C9
:10C670000849085C6178084314F83019054A505499
:10C6800020E022E044000020540000209C180020FC
:10C690003C00002049000020480000204500002008
:10C6A000E6697EB1B07A3034A1780843B07221785F
:10C6B00006F10B00405C6178084314F8302906F15C
:10C6C0000B0188546F4840F828406F48006890F884
:10C6D0002C0040F010006C49096881F82C00002003
:10C6E0006949096881F82D006749039809684885F8
:10C6F0002846FFF775F8019800F04CFFFFF7C0F8E7
:10C7000000F044FF01906048006890F82D0020B1CF
:10C71000012809D0022806D102E0002038700BE081
:10C720000E20387008E000BF294657480068FFF720
:10C7300009F80A20387000BF00BF0020524909687C
:10C7400081F82C005049096881F82D004E4909688C
:10C75000C861019800F01EFF00BFEFE62DE9F0412F
:10C760000446002749480078002802DD0520BDE87E
:10C77000F0812078042801D00120F8E700F006FFBE
:10C78000074620890612257A3F4960680968884271
:10C7900004D0384600F0FEFE6420E8E73A4800681E
:10C7A00090F82E00B04204D1294637480068FFF7C0
:10C7B000F4FD0120334941F82600A07A08B3002394
:10C7C000102219462046FEF7D2FF0546208900F4C4
:10C7D0007F4020812089284320812A4850F8250065
:10C7E0006060B54206DC384600F0D4FEFFF748F83A
:10C7F0007820BCE7384600F0CDFEFFF741F8002076
:10C80000B5E7208940F0FF002081002060603846B5
:10C8100000F0C0FE0020AAE72DE9F04705460C46CF
:10C820004FF0000919480078002802DD0620BDE815
:10C83000F0872878042801D00120F8E700F0A6FE50
:10C84000814628890012E071287AA071A079FF281A
:10C8500002D10120607101E000206071A87A20718E
:10C8600005F10B082646002705E018F8010B06F82D
:10C87000010B781CC7B2042FF7DB484600F08AFE94
:10C880000020D4E79C180020540000204400002021
:10C8900070B5044600262078032801D0002070BD22
:10C8A00000F074FE06462589002D02DD2089401E19
:10C8B0002081304600F06EFE2846F0E770B5054650
:10C8C0000026DD480078002801DD002070BD00F062
:10C8D0005DFE0646D9480468006820B1D748006864
:10C8E0004068D6490860304600F054FE5CB1032031
:10C8F00020702581002060603F20E07300212174BA
:10C900002046FEF7A5FF2046E0E72DE9F047044664
:10C91000884615464FF000092078032804D00120EE
:10C9200028702046BDE8F087C3480078002803DD62
:10C930000F2028702046F5E700F028FE8146A07AF7
:10C9400008B1012700E00027B8F1000F03D0B8F1CB
:10C95000010F3ED11BE09FB93F20E07300212174FD
:10C9600000202070B5480068606000202081B34836
:10C970000460484600F00EFE00202870002605E006
:10C98000484600F007FE49202870264628E005E0CA
:10C990000023012219462046FEF7E9FEA07A00286E
:10C9A000F6D13F20E0730021217400202070A348BD
:10C9B0000068606000202081A0480460484600F0C4
:10C9C000E9FD012F01D1FEF75BFF00202870002652
:10C9D00006E0484600F0DEFD07202870264600BF2E
:10C9E00000BF30469EE72DE9F04105460E4614464D
:10C9F00000272878032803D001202070BDE8F081AB
:10CA00008D480078002802DD02202070F6E78C486F
:10CA10000078002802DD0D202070EFE700F0B6FD61
:10CA200007462889002808DD2889401E28813846C5
:10CA300000F0B0FD00202070E0E78248006890F828
:10CA40002C0040F001007F49096881F82C0000208B
:10CA50007C49096881F82D007A4800684685284697
:10CA6000FEF7BEFE384600F095FDFEF709FF00F028
:10CA70008DFD07467348006890F82D0020B101280D
:10CA800009D0022806D102E0002020700BE00E2021
:10CA9000207008E000BF29466A480068FEF752FE91
:10CAA0000A20207000BF00BF00206649096881F895
:10CAB0002C006449096881F82D0062490968C86141
:10CAC000384600F067FD00BF98E72DE9F0410446C5
:10CAD0000F4615464FF000082078032804D00120A7
:10CAE00028700020BDE8F08100F050FD8046A07A5B
:10CAF00020B300267FB1012F0CD107E002230122D1
:10CB000000212046FEF733FE701CC6B2A07A002832
:10CB1000F4D109E000BF0223012200212046FEF7E4
:10CB200026FE701CC6B200BF00BF404600F032FDBA
:10CB3000FEF7A6FE0E2028703046D3E7404600F0F0
:10CB400029FD0020287000BFCCE770B50446002501
:10CB50002078032801D0012070BD00F017FD0546A4
:10CB6000A07A60B10023012219462046FEF7FFFD9E
:10CB7000284600F00FFDFEF783FE0020ECE7208939
:10CB80004FF6FF71884207D22089401C2081284639
:10CB900000F000FD0020DFE7284600F0FBFC32201B
:10CBA000DAE72DE9F04704460D464FF000092078FA
:10CBB000032802D00120BDE8F08700F0E7FC8146A1
:10CBC000A07AA87104F10B07AE1C4FF0000807E033
:10CBD00017F8010B06F8010B08F1010000F0FF083F
:10CBE000B8F1040FF4DB20892880484600F0D2FC1D
:10CBF0000020E0E72DE9F04104460E4615460027E7
:10CC00002078032803D001202870BDE8F08100F0CF
:10CC1000BDFC0746002028702089002801DD268100
:10CC200005E0A07A08B9268101E04920287038463D
:10CC300000F0B0FC00BFE8E7440000203C0000200A
:10CC400045000020540000202DE9FE4F06460F4607
:10CC500090461C464FF0000900F098FC8146FC48C5
:10CC60000078002805DD484600F094FC3C20BDE833
:10CC7000FE8FF84850F8240060BB0120F54941F8C8
:10CC80002400484600F086FC0023424639463046E0
:10CC900000F02CFC824600200090019003460246E2
:10CCA000514602902046FEF731FE054635B9EA4866
:10CCB000007801280CD1FEF7E3FD09E000F066FCE6
:10CCC00081460020E34941F82400484600F062FC18
:10CCD0002846CCE7484600F05DFC2820C7E702F074
:10CCE000010343B102F002032BB102E0491E00230D
:10CCF00008C00029FAD170472DE9F04F85B0814670
:10CD00008A4693461C46DDE90F78129D0020039069
:10CD100000F03CFC0390CE480078002806DD039824
:10CD200000F038FC3C2005B0BDE8F08FC94850F851
:10CD3000240088BB0120C74941F82400039800F073
:10CD400029FC2A4641463846FFF7C9FF2B465A467A
:10CD50005146484600F0CAFB04901198CDE9008086
:10CD600002953A4620460E9B0499FEF7CFFD0646F3
:10CD700036B9B948007801280CD1FEF781FD09E0E9
:10CD800000F004FC03900020B24941F8240003980D
:10CD900000F000FC3046C6E7FFE7039800F0FAFB1E
:10CDA0002820C0E72DE9F04105460027A848007873
:10CDB000002802DD4020BDE8F0811F2D01D13E207A
:10CDC000F9E700F0E3FB0746FF2D03D1A348006815
:10CDD00090F82E509F4850F8254024B9384600F06E
:10CDE000D9FB4320E7E7012C04D1384600F0D2FB01
:10CDF0003D20E0E714F8300F9949085C61788843DA
:10CE00002178974A505414F830091146085C30B91B
:10CE100094F8321093480078884392490870E0698A
:10CE200018B12046E169FEF78DFC666A16B13046FE
:10CE3000FEF7B6FE0020608584F82C0084F82D00F3
:10CE400089480078FF2804D287480078401C86492A
:10CE50000870384600F09EFBFEF773FC00F096FB6E
:10CE6000074681480078002804DD7F480078401E8E
:10CE70007D490870204600F036FB7C480078401E53
:10CE80007A4908700020734941F82500A06930B93B
:10CE900000206169886176496069086005E0D4E92D
:10CEA00005014861D4E90510886172480068606135
:10CEB000704804603F2084F8480000214920015553
:10CEC000384600F067FB64480078012801D1FEF77E
:10CED000D7FC00206FE72DE9F041044600271F2C06
:10CEE00002D13E20BDE8F081FF2C0BD100F04EFBBB
:10CEF00007465A48006890F83360384600F04AFB0D
:10CF00003046EFE700F042FB0746524850F8245005
:10CF100025B9384600F03EFB4320E3E7012D04D15C
:10CF2000384600F037FB3D20DCE73F2085F8330032
:10CF3000384600F02FFB0020D4E72DE9F0470646E5
:10CF40000F4614464FF0000841480078002804DDE1
:10CF5000112020700020BDE8F08700F017FB80460C
:10CF6000FF2E03D13D48006890F82E60394850F8F4
:10CF7000265035B9404600F00DFB432020700020BC
:10CF8000E9E7012D06D1404600F004FB4320207064
:10CF90000020E0E705F148013846FEF783F98146B5
:10CFA000404600F0F7FA002020704846D3E72DE90C
:10CFB000F0470646884614464FF00009244800789A
:10CFC000002803DD12202070BDE8F08700F0DEFAB3
:10CFD0008146FF2E03D12148006890F82E601D483D
:10CFE00050F826502DB9484600F0D4FA432020705E
:10CFF000EAE7012D05D1484600F0CCFA4320207025
:10D00000E2E74046FEF78EF907460F2F05DD48465A
:10D0100000F0C0FA41202070D6E7414605F14800F3
:10D02000FEF740F9484600F0B5FA0020207000BF36
:10D03000CAE770B50546002600F0A8FA064605487E
:10D0400050F82540C4B9304600F0A4FA462070BD1F
:10D05000440000209C1800204D00002054000020B7
:10D060004900002048000020450000204E0000201C
:10D070006000002058000020012C04D1304600F050
:10D0800089FA4320E3E794F82C0000F0080060B32D
:10D0900014F82C0F20F00800207014F82C09F8B9AF
:10D0A000608DC8B93034A078984909780843974909
:10D0B000087020789649085C6178084314F83019A4
:10D0C000934A5054304600F065FA9248007801289F
:10D0D00009D1FEF7D5FB06E0304600F05BFA02E02E
:10D0E000304600F057FA0020B1E7304600F052FA1F
:10D0F0004420ACE72DE9F04707460D464FF0000A03
:10D1000000202860686000F041FA8246FF2F03D1BA
:10D110008148006890F82E70804850F827402CB95C
:10D12000504600F037FA4320BDE8F087012C04D1C7
:10D13000504600F02FFA4320F6E7207C00F0010073
:10D1400020B9504600F026FA4520EDE70026D4F835
:10D150000C90D4F80880504600F01CFA00E0761CD1
:10D1600058F8041B0029FAD0B0002860A9EB06008B
:10D17000800068600020D7E72DE9F04105464FF0B8
:10D18000000800F003FA8046FF2D05D162480068D0
:10D1900090F82E50012608E05F48006890F82E00B5
:10D1A000A84201D1012600E000265C4850F8254045
:10D1B0002CB9404600F0EEF94820BDE8F081012C82
:10D1C00004D1404600F0E6F94320F6E794F83070C9
:10D1D0004F48C05D94F8311088434D49C855084602
:10D1E000C05D30B994F83210484800788843474908
:10D1F000087094F82C0040F0080084F82C00404699
:10D2000000F0C8F9012E01D1FEF73AFB0020D4E767
:10D210002DE9F047054688464FF0000900F0B6F9C1
:10D220008146D8F8000028B1484600F0B3F94720FD
:10D23000BDE8F087FF2D05D13748006890F82E50E3
:10D24000012608E03448006890F82E00A84201D179
:10D25000012600E00026314850F8254024B9484610
:10D2600000F098F94820E3E7012C04D1484600F08B
:10D2700091F94320DCE794F830702548C05D94F8BC
:10D28000311088432249C8550846C05D30B994F82A
:10D2900032101E48007888431C49087094F82C000E
:10D2A00040F0080084F82C00484600F073F9012E85
:10D2B00001D1FEF7E5FA0020BAE72DE9F041054675
:10D2C0000E46002700F062F90746FF2D03D11248F1
:10D2D000006890F82E50114850F825402CB9384677
:10D2E00000F058F92920BDE8F081012C04D138461E
:10D2F00000F050F94320F6E7582221463046FEF769
:10D30000B5FA384600F046F90020ECE74800002066
:10D31000490000204D000020540000209C180020EF
:10D3200070B50546002668480078002800DD70BD0D
:10D33000002D23DD00F02AF906466448006890F8C5
:10D3400030406348005D6149096891F831108843B5
:10D350005F4908550846005D40B95C48006890F890
:10D3600032105C48007888435A4908705748006872
:10D370004585304600F00EF9FEF782FA00BFD6E789
:10D380002DE9F04706460F46904699464E480078EC
:10D39000002802DD5520BDE8F08709F10500642171
:10D3A00048434FF47A71B0FBF1F14FF46160704380
:10D3B000C7EB071200EB8200404400EBC00202EB17
:10D3C000001001EB8004250CA4B22046FFF7A8FF53
:10D3D00009E04FF40040FFF7A3FF4FF40040FFF7D0
:10D3E0009FFF681E85B2002DF3DC0020D3E770B5E7
:10D3F000054600261F2D01DB2A2070BD00F0C6F86F
:10D400000646354850F8254024B9304600F0C2F8A9
:10D410004320F2E7012C04D1304600F0BBF8432052
:10D42000EBE7608D20B9304600F0B4F85020E4E717
:10D430000020608594F82C0000F0370040B114F80B
:10D440002C0F20F037002070012060702C3C02E08F
:10D45000002084F82D0094F82C0000F00800A8B9F2
:10D460003034A0781B49097808431A49087020789D
:10D470001749085C6178084314F83019144A50546D
:10D48000304600F087F8FEF7FBF902E0304600F086
:10D4900081F80020B1E770B5002500F077F8054667
:10D4A0000E480468284600F075F8204670BD70B537
:10D4B0000446002500F06AF805460848046028463E
:10D4C00000F068F870BD0000440000205400002007
:10D4D00049000020480000209C180020680000201F
:10D4E00070477047704770477047704770B5044683
:10D4F00010464FF080750560051F28462C606FF0C0
:10D500000106051F28462E604FF01236051F2846DB
:10D510002E604FF00336051F28462E604FF002366E
:10D52000051F28462E607610051F28462E60051F11
:10D53000284629604FF01136051F28462E604FF00F
:10D540001036051F28462E604FF00936051F284665
:10D550002E604FF00836051F28462E604FF0073624
:10D56000051F28462E604FF00636051F28462E6000
:10D570004FF00536051F28462E604FF00436051F74
:10D5800028462E6070BD704770477047EFF31080DB
:10D5900072B6704780F3108870471D484FF0FF0146
:10D5A0000170002080F309881A48012101701A488F
:10D5B0004FF08051016062B6FEE717484FF080518E
:10D5C0000160704714484FF080510160704772B697
:10D5D000EFF3098028B1203880E8F00F0F4909687F
:10D5E000086000B50E4880475DF804EB0D480E4911
:10D5F0000A78027009480D490A680260106890E8CC
:10D60000F00F203080F309884EF0040E62B67047A8
:10D6100022ED00E04D00002004ED00E05400002069
:10D6200087D5000846000020470000205C0000204D
:10D630001CB5FAF797FE4FF44070FAF73DFF012151
:10D640000420FCF767FB4FF40070009001208DF878
:10D65000050000208DF8040001208DF807006946C0
:10D660002648FCF761F84FF48070009001208DF897
:10D67000050000208DF8040001208DF807006946A0
:10D680001E48FCF751F81D48FCF7B3F804461B4848
:10D69000FCF7AFF804461948FCF7ABF8044604F46D
:10D6A0004074174804601CBD7FB56846FCF78EFACD
:10D6B00064220198B0FBF2F1481EB0F1807F00D3E4
:10D6C0001BE0481E4FF0E022506150170F22002847
:10D6D00004DB13071C0E0B4B1C5406E013071D0E36
:10D6E000094B00F00F04241F1D5500BF00204FF010
:10D6F000E02290610720106100BF7FBD000802405A
:10D700007400002000E400E018ED00E010B500F027
:10D7100071FD00F089FA00F0EAF800F0ADFE00F0CB
:10D72000BBFD01F075FD02F00FFC10F083FB02F071
:10D730004DF902F019F80B480068B0F5407F06D0AB
:10D7400003F0FFFB6321C72003F010FE03E08E21EE
:10D75000552002F01FFC03F04DFA03F05DFB18F0BA
:10D76000DDFA10BD7400002000B595B00120FCF773
:10D77000D9F901214802FCF7DEFA0120FAF794FFFB
:10D7800001210220FCF7C6FA0220019003208DF847
:10D7900008008DF8090001A9A248FBF7C5FFA248BF
:10D7A0000068B0F5407F0BD04FF48040019003201B
:10D7B0008DF808008DF8090001A99A48FBF7B4FF1D
:10D7C0004FF4003000906846FAF726FF9748FAF7C2
:10D7D000E3FE0020039001208DF810008DF8110069
:10D7E00000200590069007908F480068B0F5407FB4
:10D7F00003D102208DF8200002E003208DF82000E4
:10D8000003A98A48FAF7D6FE07230122092187488F
:10D81000FAF759FF84480068B0F5407F05D0072328
:10D82000032214218148FAF74EFF07230222112117
:10D830007E48FAF748FF12208DF8240009208DF861
:10D84000250000208DF8260001208DF8270009A86A
:10D85000FAF737FE012242F21A017448FBF702F987
:10D8600001217248FAF7E6FE00BF40216F48FBF73E
:10D8700009F90028F9D000BF4FF480716B48FBF71D
:10D8800001F90028F8D101210806FCF743FA68489D
:10D89000FBF71CF9654858300A9066480B90002049
:10D8A0000C903C200D9000200E9080200F904000A6
:10D8B0001090800011902020129000021390002000
:10D8C00014900AA95A48FBF7A3F901215748FAF71F
:10D8D000E6FF01215548FAF7EDFF5448FAF79FFF9C
:10D8E00001215348FBF7BFF9012015B000BD10B569
:10D8F000002400BF05E000204E4921F81400601C00
:10D9000084B23C2CF7DBFFF72FFF012010BD30B5B0
:10D9100003460C46002200210020434D2D68B5F53A
:10D92000407F27D113B1012B1CD10DE0002107E06E
:10D93000404D35F811502A444D1CA9B24D1CA9B2D6
:10D940003C29F5DB01200FE0012107E0394D35F8D6
:10D9500011502A444D1CA9B24D1CA9B23C29F5DB3B
:10D96000012001E0002000BF00BF1E25B2FBF5F53D
:10D97000258041E02C4D2D68B5F5407F3CD023B18A
:10D98000012B12D0022B30D11FE0002109E0294DDC
:10D9900035F811502A444D1CA9B24D1CA9B24D1C9A
:10D9A000A9B23C29F3DB012021E0012109E0214D4E
:10D9B00035F811502A444D1CA9B24D1CA9B24D1C7A
:10D9C000A9B23C29F3DB012011E0022109E0194D45
:10D9D00035F811502A444D1CA9B24D1CA9B24D1C5A
:10D9E000A9B23C29F3DB012001E0002000BF00BF09
:10D9F0001425B2FBF5F5258030BD10B5FDF792FD7D
:10DA000020210A48FBF73EF848B120210748FBF7E0
:10DA100042F800210648FBF726F9FFF7A5FEFDF7BF
:10DA20009CFD10BD00040240740000200024014051
:10DA3000086002405420002000214100FB4A128A65
:10DA40004FF601631A4001F4FF731A43F74B9A82B1
:10DA5000704710B504460121F548FBF7DBFE1021A5
:10DA6000F348FBF7D7FE0221F148FBF7D3FE20462F
:10DA7000FFF7E2FF0221EE48FBF7CAFE1021EC4857
:10DA8000FBF7C6FE0121EA48FBF7C2FE10BD10B548
:10DA900004460121E648FBF7BBFE1021E448FBF7F2
:10DAA000B9FE0221E248FBF7B5FE2046FFF7C4FFAE
:10DAB0000221DF48FBF7ACFE1021DD48FBF7A8FE92
:10DAC0000121DB48FBF7A4FE012010BD10B5044680
:10DAD0008120FFF7BEFF2046FFF7BBFF012010BDEE
